:100000000C9409030C9441030C9441030C94410398
:100010000C9441030C9441030C9441030C94410350
:100020000C9441030C9441030C94972D0C946B2E6B
:100030000C94AE270C9441030C9441030C9441039F
:100040000C9441030C9441030C9441030C94410320
:100050000C9441030C9451280C9441030C944103DB
:100060000C9441030C9441030C9441030C94410300
:100070000C9441030C9441030C9441030C944103F0
:100080000C9441030C9441030C9441030C944103E0
:100090000C9441030C9441030C9441030C944103D0
:1000A0000C9441030C9441030C94410307634236C2
:1000B000B79BD8A71A39685618AEBAAB558C1D3CF9
:1000C000B7CC5763BD6DEDFD753EF6177231BF00BD
:1000D0000000803F05A84CCDB2D44EB93836A902F5
:1000E0000C50B9918688083CA6AAAA2ABE00000036
:1000F000803F68747470733A2F2F716D6B2E666D2C
:100100002F0A00514D4B2069732074686520626589
:100110007374207468696E672065766572210029A2
:10012000001A0015001C002A002C4226002B001685
:100130000009001800280010002300E1001B00192E
:10014000000C00520036002000E0002C4105001297
:1001500000510037003700E3002C00110013004F5E
:1001600000E50027001D0006000B000F001E0050D8
:10017000001F00040007000A000E0021002D43228A
:10018000001400080017000D002400E200250029DB
:10019000001F00210023002A002D0026002B00163E
:1001A0000009002400280010002300E1001B0019B2
:1001B000002500520036002000E000000005002667
:1001C00000510037003700E3002C00000027004FEB
:1001D00000E50027001D0006000B000F001E005068
:1001E000001F00040007000A000E0021001E00226C
:1001F000001E00200022002D002400E2002500291E
:10020000003B003D003F002A00000026002B0016A6
:100210000009004000280010002300E100CC5CC869
:100220005C4100520036002000E0002C00CA5C4215
:1002300000510037003700E3002C00C35C43004F3F
:1002400000E5002700C25CC65C0B000F001E0050DA
:10025000001F00040007000A000E00210000002219
:10026000003A003C003E000D002400E20025002979
:1002700000450069006B002A002C0026002B0016A8
:100280000009006C00280010002300E100CC5CC8CD
:100290005C6D00520036002000E0002C00CA5C6E4D
:1002A00000510037003700E3002C00C35C27004FEB
:1002B00000E5002700C25CC65C0B000F001E00506A
:1002C000001F00040007000A000E002100000022A9
:1002D00000440068006A000D002400E200250000D0
:1002E000047F3F1F643214643214783C1E1E140ACB
:1002F00005FFAA7F55400001010101010101010133
:1003000002020202020202020203030303030303C6
:100310000304040404040404050505050506060693
:100320000606070707070708080808090909090A50
:100330000A0A0B0B0B0C0C0C0D0D0D0E0E0E0F0FF5
:100340000F10101111111212131314141515161683
:100350001717181819191A1A1B1B1C1D1D1E1E1FF2
:100360002020212222232424252626272829292A41
:100370002B2C2D2D2E2F3031323233343536373869
:10038000393A3B3C3D3E3F40414243444546474865
:10039000494A4C4D4E4F50515354555658595A5B3B
:1003A0005D5E5F616264656668696B6C6D6F7072DB
:1003B000737577787A7B7D7E8082838587888A8C47
:1003C0008E8F91939596989A9C9EA0A2A3A5A7A97B
:1003D000ABADAFB1B3B5B7BABCBEC0C2C4C6C9CB72
:1003E000CDCFD1D4D6D8DBDDDFE2E4E7E9EBEEF028
:1003F000F3F5F8FAFDFF00000000000000002A2BD2
:1004000028000000000000000000000000000000C4
:100410000029000000002C1E34202122243426272D
:10042000252E362D3738271E1F202122232425264E
:100430003333362E37381F0405060708090A0B0C1C
:100440000D0E0F101112131415161718191A1B1C64
:100450001D2F3130232D350405060708090A0B0C22
:100460000D0E0F101112131415161718191A1B1C44
:100470001D2F3130354C000000000000000000004E
:10048000000000000000000000000000000000006C
:10049000000000000000000000007E0F00D4FFFFFD
:1004A000FFC700000078100363006F006F006C004E
:1004B00037003500360000000A036D002E006B0087
:1004C000690000000403090409025B00030100A0A5
:1004D000FA090400000103010100092111010001D2
:1004E00022400007058103080001090401000203FE
:1004F00000000009211101000122220007058203EA
:100500002000010705030320000109040200010384
:10051000000000092111010001227B00070584036E
:100520002000011201000200000008434D5607019F
:1005300000010200010660FF0961A10109621500C6
:1005400026FF009520750881020963150026FF002B
:10055000952075089102C005010902A101850209D3
:1005600001A1000509190129081500250195087543
:100570000181020501093009311581257F95027538
:1005800008810609381581257F95017508810605C2
:100590000C0A38021581257F950175088106C0C0B7
:1005A00005010980A101850319012AB7001501265B
:1005B000B700950175108100C0050C0901A10185E6
:1005C0000419012AA002150126A0029501751081C7
:1005D00000C005010906A101050719E029E715007A
:1005E00025019508750181029501750881010507AE
:1005F000190029FF150026FF0095067508810005E2
:100600000819012905950575019102950175039158
:1006100001C011241FBECFEFDAE0DEBFCDBF04B6AC
:1006200003FE18C08091FE029091FF02A09100038A
:10063000B09101038730904BA740B04B59F4109212
:10064000FE021092FF021092000310920103E0E0FC
:10065000F8E3099511E0A0E0B1E0E0E6F9E602C0B8
:1006600005900D92AA3DB107D9F722E0AAEDB1E0BD
:1006700001C01D92AE3FB207E1F70E9424120C9414
:1006800085340C940000813B2DE5920729F0823BD4
:100690009D4561F081E00895FB0182818823D1F3BB
:1006A00060E083E091E00E948622F4CFFB0182812A
:1006B000882381F360E082EF90E0F5CF84E0089535
:1006C00081E008950E944303089508950E94650300
:1006D0000895A5E0B0E0EFE6F3E00C94F23349832F
:1006E0005A833091E10189819A81311119C06623C1
:1006F00099F0222389F00E943609182F682F8981EA
:100700009A810E94120969817A81812F0E94C023F7
:100710002596E3E00C940E340E942409182FF3CFA1
:100720000E94360969817A81F1CFFC01262F408130
:1007300051816281738184810E946903089581E0FF
:100740000895CF93DF93EC0160E00E949503BE0112
:100750000E946603DF91CF910895E1E0F0E0DF01B0
:1007600002C0AA0FBB1F6A95E2F7BD01DF0102C0FC
:10077000AA0FBB1F4A95E2F76A2B01C0EE0F2A951C
:10078000EAF7962F9823961302C08E2B0895E095D2
:100790008E230895242F462F682F8091F7010E9401
:1007A000AD030E94720808950E94D41008950E941B
:1007B000D810089508950E9404080E94DA032FEFCC
:1007C00084E39CE0215080409040E1F700C00000AD
:1007D00008950E94DB030E94752808950E94DB03A0
:1007E0000E94992808950F931F93CF93DF938C0154
:1007F00061E00E949503EC01B8010E94F71E81118F
:1008000006C080E0DF91CF911F910F910895B8014C
:10081000CE010E9462038823A1F3B801CE010E9499
:100820000625882371F3B801CE010E945520882344
:1008300041F3B801CE010E947824882311F3B80156
:10084000CE010E949E1D8823E1F2F8018281882357
:1008500061F0CA35FDE5DF0701F158F4C115ECE59B
:10086000DE0791F0CE3DDC4591F0C8010E946003A7
:10087000C9CFCC358DE5D80769F090F0C73ADD4592
:10088000A1F70E94EE03BDCF0E94E903BACF0E94F8
:10089000EF0DF7CF0E94290DE8CF0E94330DE5CF71
:1008A0000E94370DE2CF0E948B270E9476040E949F
:1008B000141C0E94581508950E947A040E94EB1C93
:1008C0000E949027089508950E946304089581E08E
:1008D00008950E94670408950895CF93C82F0E9439
:1008E00064048C2F0E946904CF91089580E00E94D7
:1008F0006D0408950E94B8260E946D040895CF9358
:100900000E94B826C82F8091DC018C1779F0C09323
:10091000DC010E941A286093DD017093DE01809350
:10092000DF019093E0018C2F0E946D04CF91089518
:10093000ABE0B0E0EEE9F4E00C94F3334F8358877A
:1009400069877A878B8761110E94740C1E821D82D1
:1009500085E0FE013796DE01119601900D928A9591
:10096000E1F78C819D81892B61F449815A816B81EA
:100970007C818D819E810E949D0B2B96E2E00C94E0
:100980000F3489819A8189238F3F79F3CE010196B3
:100990000E949F038111E9CFF0CFFC0180819181FA
:1009A0000E9463090895A6E0B0E0E9EDF4E00C943C
:1009B000F133082F162F0E94C91529834B835C83BE
:1009C0006D837E83002369F0312B4981532F6B8126
:1009D0007C818D819E810E94E4152696E4E00C9432
:1009E0000D3410953123F1CFCF93C82F8823B9F060
:1009F0008CEF8C0F813AA8F46C2F809100019091BC
:100A000001010E941C27882329F08C2F0E94340C9E
:100A10000E94950C8C2F0E942C0C0E94950CCF915B
:100A2000089580E28C0F883048F4C77081E001C0DF
:100A3000880FCA95EAF70E94570CEFCFEBE5EC0F51
:100A4000E33040F4F0E0E65AFE4F808190E00E94EF
:100A5000DE26E5CFE8E5EC0FE73150F4F0E0EE0FED
:100A6000FF1FE45DFE4F808191810E94F426D7CF65
:100A7000C03FA8F28C2F0E94A8120E947B13CFCFF8
:100A8000882379F19CEF980F913A28F40E94340C56
:100A90000E94950C089590E2980F983050F487705A
:100AA00091E001C0990F8A95EAF7892F0E945D0CA9
:100AB000EFCF9BE5980F933028F490E080E00E9400
:100AC000DE26089598E5980F973128F490E080E0AD
:100AD0000E94F4260895803F20F00E9402130E9495
:100AE0007B1308951F93CF93DF93182FEB010E9480
:100AF000F404209739F4812F0E944005DF91CF91B3
:100B00001F9108958FE99FE00197F1F700C0000061
:100B10002197EFCF70E060E0893311F460E570E079
:100B20000E9472050895882321F00E94570C0E94AC
:100B3000950C0895882321F00E945D0C0E94950C6D
:100B40000895B0E0A0E0E7EAF5E00C94EC336C0126
:100B5000D62FC72FFC011281F580F2949FE0F92275
:100B60000E944D0CE82E8823B9F0E12E1123A1F04C
:100B70008C2F807F803421F080E28D0F8830D0F080
:100B80008091A70282FF16C082E00E94F80C0E94AA
:100B90004D0C91E0E82EE926BC2EB2948FE0B822ED
:100BA000FBE0FB1508F468C0EB2DF0E0E957FB4CC7
:100BB0000C94A533E12CF0CF0C2F0F70C07F11F0F7
:100BC0000295007F112399F0002359F080E28D0FE8
:100BD000883010F0D11107C0802F0E94570C0E945E
:100BE000950C8D2F41C0802F0E94670CF8CF8D2F60
:100BF0000E944005002309F43FC080E28D0F883039
:100C000010F0D11104C0802F0E945D0C03C0802F12
:100C10000E946D0C0E94950C2FC00C2F0F70C07F8E
:100C2000C03211F00295007FDD2381F0D13009F44C
:100C300065C0112309F46FC0FF2009F465C0F601F7
:100C4000858180FFCECF8F7085835EC08091A702A3
:100C500082FD34C0112359F0002329F0802F0E9417
:100C6000570C0E94950C80E00E94F40405C080E0BF
:100C70000E9440050111C7CF2B2D2850330B243083
:100C8000310520F40E94B8260E946D04EE2089F000
:100C90000E94490C80FD0DC0F60112820E94430C97
:100CA0000E948608C6010E94C4070E94430C0E944D
:100CB0009208CDB7DEB7E9E00C940834112389F02F
:100CC000F11006C00E94770C802B0E949305D4CFB0
:100CD00021E0F212F7CF0E94770C802B0E947E0C4D
:100CE000CBCFF11006C00E948B0C802F0E949A057A
:100CF000C3CF31E0F31609F4BFCFF5CF112331F0A4
:100D000085E08F1508F4B8CF802FDFCF94E09F15D2
:100D100008F4B2CFEACFFF2041F3D93349F4FFEF13
:100D200027EE33E0F15020403040E1F700C00000F2
:100D30008D2F0E944005A0CF8C2F869586958370BD
:100D400069F0813009F098CF8D2F9C2F937011118D
:100D500002C090E080E00E94F4268ECF8D2F9C2F61
:100D60009370111102C090E080E00E94DE2684CFD3
:100D70008D2F112391F00E94A812ED2FE45FFF0B3D
:100D8000E530F10568F461E070E001C0660FEA95B6
:100D9000EAF7812F0E94D3046FCF0E940213EDCF98
:100DA0000E947B1369CF8C2F837079F5111164CF6A
:100DB0004D2F429546954770440F440F8D2F8F70ED
:100DC000042E01C0880F0A94EAF72D2F2071D4FF5A
:100DD00007C02FE030E001C0220F4A95EAF72095C6
:100DE000C695C695C370822BC23049F058F4C13005
:100DF00019F00E94600840CF0E945A083DCF0E941F
:100E000066083ACF0E94570837CF8695112311F014
:100E10008C2F8170882309F42FCF4D2F4295469552
:100E20004770440F440F8D2F8F70042E01C0880F20
:100E30000A94EAF72D2F2071D4FF07C02FE030E08D
:100E400001C0220F4A95EAF72095C695C695C37052
:100E5000822BC23049F058F4C13019F00E94B10819
:100E60000BCF0E94AB0808CF0E94B70805CF0E94A5
:100E7000720802CFCF70112329F08C2F0E948608B0
:100E80008D2F23CF8D2F0E949A058C2F0E949208C0
:100E9000F3CED23F51F160F4D03FB9F0D13F81F0B1
:100EA000112309F449C0F1109CCE8C2F8F7121C001
:100EB000D33F11F1D43FA1F78091A70282FD26C054
:100EC0008C2F8F71112311F314C0112349F0F4E01A
:100ED000FF1508F4D1CE8C2F8F710E949F08CCCEC5
:100EE00025E02F1508F4C8CEF6CF8C2F8F71111185
:100EF000CDCF0E948608C0CE112329F08C2F8F7190
:100F00000E947D08B9CE0E947908B6CE112349F01F
:100F1000CF718C2F0E94860863E08C2F0E94DA0C20
:100F2000ABCE81E00E94F80C31E03F1508F0A4CE72
:100F300082E00E94F80CA0CEFF2059F0D93309F0CE
:100F4000F7CE8FEF97EEE3E081509040E040E1F77D
:100F5000EDCE8C2F8F719ACF0F931F93CF93DF938A
:100F6000EC01688179818A810E946E098C010E945E
:100F7000BD080E945608B801CE010E94A105DF916C
:100F8000CF911F910F910895CF93DF93EC018B8147
:100F90009C81892B29F08881998189238F3F51F485
:100FA000DF91CF910895CE010E94AC07CE010E943F
:100FB000A103F6CFCE010E94F3038111F4CF0E946A
:100FC0004D0C882369F38A81882351F38091A7020D
:100FD00082FFE6CF82E00E94F80CE2CF90E080E052
:100FE0000E94DE2690E080E00E94F4260E94740CAD
:100FF0000E94950C0E9497130E947B1308950E94F3
:101000003C0C0E94EE0708950E94640C0E94FF07AA
:10101000089592959F70963091F058F4925F9F706A
:10102000923058F4803F19F030F4883E30F481E07B
:1010300008959A5FF4CF843FD1F380E00895883E0D
:10104000B0F3813FD1F7F3CFFC0183819481892BE9
:1010500029F08081918189238F3F11F480E00895E8
:10106000808191810E9463090E9409080895A5E08A
:10107000B0E0EDE3F8E00C94F3332596E2E00C9455
:101080000F34A6E0B0E0E7E4F8E00C94F3332696E2
:10109000E2E00C940F3408950E944B0808950E94DA
:1010A0004C088093F8010E94EE07089508950E946D
:1010B0004F0808959091F801892B0E944F080895D8
:1010C0009091F80189230E944F0808959091F801AA
:1010D00089270E944F0808950E944B0808950E9496
:1010E0006C0808950E946F088093F7010E94EE0734
:1010F000089580E00E947208089591E001C0990F60
:101100008A95EAF7892F0E947208089521E030E05D
:1011100001C0220F8A95EAF78091F701822B0E9485
:101120007208089521E030E001C0220F8A95EAF7A5
:1011300020958091F70182230E947208089521E092
:1011400030E001C0220F8A95EAF78091F7018227EB
:101150000E94720808959091F701892B0E947208ED
:1011600008959091F70189230E9472080895909143
:10117000F70189270E94720808950895262F277085
:1011800091E001C0990F2A95EAF723E076956795DB
:101190002A95E1F7FB01EE0FFF1FE60FF71FE40FA3
:1011A000F51F50E040E0682F70E08191DF0111975A
:1011B0009B01042E02C0369527950A94E2F7217010
:1011C00021952827292328272C934F5F5F4F4330F1
:1011D000510559F70895A82FA77023E09695879594
:1011E0002A95E1F7FC01EE0FFF1FE80FF91FE60F4C
:1011F000F71F50E040E080E0219130E00A2E02C06D
:10120000369527950A94E2F721703327042E01C002
:10121000220F0A94EAF7822B4F5F5F4F433051054C
:1012200059F70895262F983070F4873060F4682FAE
:1012300070E087E0989F600D711D112442EE51E02F
:10124000822F0E94BE080895292F983068F48730B5
:1012500058F490E062EE71E037E0239F800D911D1D
:1012600011240E94EB08089580E00895CF92DF9248
:10127000FF920F931F93CF93DF936C010091F701BF
:101280008091F801082BC7E0D0E010E0FC2EC801E7
:101290000C2E02C0959587950A94E2F780FD0CC04C
:1012A0002197A0F7F12C8F2DDF91CF911F910F91F6
:1012B000FF90DF90CF900895B6018C2F0E94B20F5F
:1012C000019771F3F0CFCF93DF93EC010E943609C1
:1012D000BE010E94B20FDF91CF9108951F93CF936B
:1012E000DF93EB019091E101992339F0CB010E944A
:1012F0006309DF91CF911F910895882369F0CB0195
:101300000E943609182F682FCE010E941209BE01D3
:10131000812F0E94B20FEDCFCB010E942409182F1C
:10132000F6CF1F93CF93DF93C091F90116E0809120
:10133000FA018C1304C0DF91CF911F910895D0E082
:101340001C9FF0011D9FF00D1124E550FE4F4081C0
:10135000518162817381848195810E944108219627
:10136000C770E5CF40912B0250912C0260912D0265
:1013700070912E0280912F02909130020E944108BC
:1013800008951F93CF93DF9380913002807F09F0FF
:1013900049C080912D02882309F444C08091F9014D
:1013A000C091FA0160912B0270912C02A0912E0243
:1013B000B0912F02D62FD72316E0C81799F190E0ED
:1013C000109711F0DF3F19F401968770F6CF189F40
:1013D0009001199F300D1124F901E550FE4F418114
:1013E0004713F2CF40814613EFCF42814111ECCF3A
:1013F000438154814A1B5B0B483C510528F780917F
:1014000030028F70806180933002F901E050FE4F0E
:1014100080818F70806180838BE292E00E94C4079C
:101420000E949109DF91CF911F910895A1E1B0E051
:10143000ECE1FAE00C94EB338C0185E0F801DE017D
:101440001D9601900D928A95E1F7F801E2808BE2FA
:10145000C82E82E0D82E60912E0270912F02611565
:10146000710509F44EC190912B0220912C02892F15
:1014700082238F3F09F445C140815181A380B4800C
:10148000F0902D02F501E61BF70BFF2009F4EAC0EE
:1014900080913002382F307FE83CF10508F0A3C07E
:1014A00031116DC0FE2C251316C0941314C0E11029
:1014B00012C08F708061809330020E94B209C60111
:1014C0000E94C40780913002F80185838F2D6196B8
:1014D000EAE00C940734A114B10429F0842F852389
:1014E0008F3F09F027C180E0F82FF170DF2E80FFD9
:1014F0003CC08091F9012091FA0136E0821315C0B9
:101500004D875E878D859E850E946309292F2295D0
:101510002F702230F0F0243018F59F70F1F0F801B0
:101520009581907FD1F4D12C1EC090E0389FF001BE
:10153000399FF00D1124E550FE4F6181651306C0FF
:101540006081641303C06281E6120FC00196877048
:10155000D5CF9F7011F0882331F3805E883018F367
:10156000C8010E94C407FD2CB1CFEE2009F4AECF14
:1015700080913002816080933002F12CA7CF251337
:1015800006C0941304C0F801EE2009F487C0C80116
:101590000E942408882319F1EE2009F1809130027D
:1015A000803270F020912B0230912C0238872F83EB
:1015B0001986BB86AA868C87CE0107960E94C4072F
:1015C00086E0F801ABE2B2E001900D928A95E1F776
:1015D0000E94C1090E94B209FF24F39477CFC80189
:1015E0000E94C407F9CF311113C07A2DB98AA88A95
:1015F0006E2D89890E9437088BE292E00E94C40711
:1016000086E0F60111928A95E9F70E94B209B5CFFA
:1016100025130FC094130DC0E1100BC0F801858392
:10162000C8010E94C40786E0F60111928A95E9F785
:101630004DCFC8010E942408882389F2EE2079F258
:1016400080913002803208F4BBCF20912B02309180
:101650002C023A8329831B82BD82AC828E83CE0109
:101660000196ACCFE83CF10508F03EC0FE2CEE2020
:1016700009F4B5CF25132AC0941328C080913002F5
:1016800080FD1BC0982F907FC1F0F8018583903FAB
:1016900031F0982F907F905F8F70892B8583C801E0
:1016A0000E94C40786E0F801ABE2B2E001900D921F
:1016B0008A95E1F70E94B20909CF86E0F801ABE212
:1016C000B2E001900D928A95E1F700CFC8010E9427
:1016D0002408811175CF809130028160809330029F
:1016E000C8010E94C407F2CE7A2DB98AA88A6E2D4D
:1016F00089890E94370886E0F60111928A95E9F7F8
:10170000D9CFEE2009F46BCFC8010E942408F82E2F
:10171000882309F464CF86E0F801ABE2B2E00190DF
:101720000D928A95E1F78BE292E00E94CD040E942F
:10173000C109C0CF81E08E25D7CEACE0B0E0E3EAAE
:10174000FBE00C94F2334F83588769877A878B8745
:101750009C87CE0107960E94160A882369F08A8525
:101760009B85892B39F04F815885842F85238F3FA6
:1017700009F06BC016E05FC086E0FE013796DE011F
:10178000119601900D928A95E1F78A859B85892BA8
:1017900089F38F81988589238F3F61F32091FA0126
:1017A00030E0C9010196877099274091F9014817E7
:1017B000190671F40E9404081092FA011092F901BE
:1017C00086E0EBE2F2E0DF011D928A95E9F7D2CFE5
:1017D00096E0929FD001939FB00D1124A550BE4F6B
:1017E000FE01319601900D929A95E1F78093FA01EE
:1017F0000E949109BFCF819FC001112485509E4F47
:101800000E94160A8823E9F0E091F9011E9FF00179
:101810001124E550FE4F40815181628173818481A2
:1018200095810E9441088091F90190E001968770AE
:1018300099278093F9018091F9019091FA01891318
:10184000DACF2C96E3E00C940E3469857A858B858B
:101850009C850E9441088ECF682F80910001909155
:1018600001010E9452270895682F809100019091F4
:1018700001010E9455270895809100019091010176
:101880000E94582708958091390285958595859500
:101890000895809139028770089590913902977068
:1018A00081E009F480E008958091440208959091C8
:1018B0004402892B809344020895809590914402BC
:1018C00098239093440208951092440208959091B1
:1018D0004302892B8093430208958095909143029F
:1018E00098239093430208951092430208958091A3
:1018F0003A02089508950E947A0C08959091A702E3
:1019000092FF08C090913A02981721F080933A0212
:101910000E947B0C089580913A02882329F010924E
:101920003A0280E00E947B0C0895CF93DF93E09110
:101930000001F0910101809144028083E091000157
:10194000F0910101808190914302892B80839091D5
:101950003A02992381F0E0910001F0910101808128
:10196000892B808380910001909101010E940A27B8
:1019700081110E948B0CC0910001D091010148E0BF
:1019800050E061E372E0CE010E942734892B59F0C8
:1019900088E0FE01A1E3B2E001900D928A95E1F7A3
:1019A000CE010E94C526DF91CF91089508950E942F
:1019B000D60C08959091A70292FF11C098E0899FDC
:1019C00090011124622B609339020E948608809155
:1019D00039028595859585950E94D70C08950E94BA
:1019E000860808951092390280E00E94D70C08956D
:1019F000909139028095892380933902282F27708E
:101A000091F4282F082E000C330B9217130659F06F
:101A10009091A70292FF07C08595859585950E94B4
:101A200092080E94F20C08959091A70292FB22273F
:101A300020F9281769F080FB92F99093A702809112
:101A4000A6029091A7020E94660D82E00E94F80C07
:101A500008958091A70282FB882780F991E0892769
:101A60000E94140D089581E00E94140D089580E0F5
:101A70000E94140D08956FEF7FEF90E080E00E94C8
:101A80006F34089590E080E00E944B34883E9E4F72
:101A900019F40E94921E089580E0089582E090E07B
:101AA0000E943D34089583E090E00E943D34089503
:101AB000CF9384E090E00E943D34C82F82E290E012
:101AC0000E943D34982F8C2FCF910895CF93C92F2A
:101AD000682F84E090E00E9451346C2F82E290E005
:101AE0000E945134CF910895AB01BC018FE090E08A
:101AF0000E9463340895AB01BC0183E190E00E9431
:101B00006334089560E070E0CB010E947B0D08957E
:101B100060E070E0CB010E94740D0E94820D089578
:101B200068EE7EEF90E080E00E946F3460E082E03B
:101B300090E00E94513460E083E090E00E945134D4
:101B40001092F80160E084E090E00E94513464E07B
:101B500082E290E00E94513460E085E090E00E94D3
:101B6000513460E086E090E00E9451346FEF87E0EE
:101B700090E00E94513440E050E0BA0188E090E0EB
:101B80000E94633460E08DE090E00E94513440E0B8
:101B900050E0BA0188E190E00E94633460E087E1A0
:101BA00090E00E94513440E050E0BA018CE190E0B6
:101BB0000E94633470E060E080E290E00E946F3445
:101BC00040E050E0BA0188E190E00E94633480E098
:101BD0000E94AB1E0E94DA1E0E94880D08950E948A
:101BE000900D0895682F8EE090E00E945134089582
:101BF0000E941A28609353027093540280935502F6
:101C00009093560260934F0270935002809351025A
:101C1000909352020895089508950E940C0E08951D
:101C200008950E94100E08958CE990E10E94AE265E
:101C30000E940B0E0E940D0E089581E008950E94EF
:101C40001D0E0895089508950E94220E0E94230EED
:101C500008950E94B8100E946C0408950E940528FF
:101C60000E94EA1E0E9483110E94290E0E94AF1C4E
:101C70000E940E150E94110E0895AAE0B0E0E3E460
:101C8000FEE00C94EB330E94991187E4A82E82E0C9
:101C9000B82E750110E0F70101917F01812F0E949C
:101CA000DB101F5F183009F440C00817A1F38091C2
:101CB000570281FD0E94E1100E941F0EC82E10E005
:101CC000812F0E94DB10082FF50181915F01081719
:101CD00031F1D02ED826F12CEE24E3948D2D8E21D7
:101CE000B1F0CC20A1F0FE821F8391E0802F8E21E5
:101CF00009F490E098870E940E288160782F9A87D7
:101D000089874E815F8168858A850E949804F39453
:101D1000EE0CF7E0FF12E2CFF501319700831F5F71
:101D2000183071F60E94F80D20C00813C0CF0E9431
:101D30000E288C01809145029091460208171907E0
:101D4000A1F08FEF89838A831B820E940E28816015
:101D5000782F9D838C8349815A816B818D810E946C
:101D6000980410934602009345020E94F51C0E94BD
:101D7000D4130E9458150E947F042A96EAE00C941E
:101D80000734CF93DF930E94B70FEC01811521E553
:101D9000920708F042C0811530E5930708F09FC014
:101DA000883E910530F5803E910508F094C0883A50
:101DB000910588F4853A910508F086C08130910537
:101DC00009F489C0009709F486C0049708F083C01D
:101DD000D0E0C0E080C08F3B9105D0F7C85AD0E07A
:101DE000CC0FDD1FC35ADE4F0990D881C02DD464BB
:101DF00072C0811540E2940750F4C11581E0D80704
:101E000008F069C0C03FD10518F3D06564C08115E2
:101E10009044F0F2DF70D06A5EC0811535E593071B
:101E200018F5811544E5940708F085C0C11583E5D0
:101E3000D80708F06CC0C11522E5D20708F462C0CB
:101E4000CE018370992721E030E002C0220F331FBA
:101E50008A95E2F7C695C69580E2C89FE0011124F5
:101E6000C22BD32BDC6837C0811539E59307A8F462
:101E7000811548E5940708F063C0C11586E5D807C9
:101E800008F0A6CF8C2F0E945910C82FD0E0DC2F6D
:101E9000CC27CC27DF71D0621EC081152AE59207BE
:101EA00008F453C090568115904208F091CF8D2FC1
:101EB0008F710E94591090E0982F882788279F7172
:101EC0009C012C2BE901E7CFC55AD0E0C557DE4F66
:101ED000C881D0E0D064CE01DF91CF9108958370A6
:101EE000992721E030E002C0220F331F8A95E2F7E4
:101EF000C695C69540E2C49FE0011124C22BD32BA6
:101F0000DD68E9CFDC2FCC27C16FD06AE4CFCE01EA
:101F10008370992721E030E002C0220F331F8A9599
:101F2000E2F7C695C69540E2C49FE0011124C22B9A
:101F3000D32BDA68D0CFD82FCC27C46FD06ACBCFC1
:101F4000D82FCC27C06FD06AC6CF8F700E9459108F
:101F500034E0D695C7953A95E1F7CF709C2FEC0108
:101F6000D069B9CF0E94C0230E94C10E0895823863
:101F70009105B9F1B0F48133910509F47DC048F4BD
:101F80008932910509F46DC08A32910509F47BC04C
:101F900008958533910509F45FC08933910509F1EE
:101FA0000895833E9105D9F138F4803E910529F1D9
:101FB000823E910579F10895863E9105D9F1873EDB
:101FC000910509F43EC0843E910541F52091A70298
:101FD00021FF24C08091A60284FD19C087EE90E005
:101FE00008952091A602237009F05AC02091A702FB
:101FF00023FF14C089E290E008952091A60220FDFD
:1020000038C03091A70230FF09C024FF43C090E0E0
:1020100080E008952091A60222FDF7CF0895209137
:10202000A60222FD3AC03091A70230FD39C024FF3C
:10203000F5CFEDCF2091A60223FFF0CF24FDE7CF0F
:10204000CDCF2091A60223FD2EC03091A70231FFF3
:10205000EECF84EE90E008952091A60225FFDECF1A
:10206000C9CF2091A60225FD21C02091A70223FF00
:10207000D5CF89E390E0D2CF2091A60226FFCECF24
:102080008AE290E008952091A60226FFC7CF81E35F
:1020900090E0089583EE90E0089582EE90E0089538
:1020A00080EE90E0089586EE90E0089585E390E05C
:1020B00008959091A60292FF06C0282F287128301B
:1020C000F9F4877F846093FF06C0282F2871283198
:1020D000F1F4877E84612091A70220FF06C0382F8B
:1020E00038713830D9F4877F816021FF06C0282FEE
:1020F00028712831D1F4877E816194FD877E08950F
:10210000282F24712430F9F68B7F8860DCCF282FAC
:102110002471243101F78B7E8861DDCF382F317136
:10212000313019F78E7F8860E0CF282F217121315F
:1021300021F78E7E8861E1CF80E008950E943B0DFB
:1021400008950E9499118FE39CE90197F1F700C06F
:1021500000000E94991180E00E94DB1080FF04C003
:102160000E949E100E94752808950E94A110089553
:102170000E94420D811102C00E94EF0D0E944E0D7F
:10218000809357020E94580D9093A7028093A60255
:102190000E94B5100E94530D0E9457088091F701CC
:1021A0000E946F08089508950E94D310089508951D
:1021B0000E94D7100895E82FF0E0E055FD4F808190
:1021C0000895089580EA8A95F1F7089500C008956A
:1021D0000E94E2100895F894E82FE295EF70F0E085
:1021E00031A1282F2F7081E090E001C0880F2A953F
:1021F000EAF7982F9095932391A392A1892B82A31C
:1022000078940895CF93DF93CEE8D1E089918F3F02
:1022100011F00E94EB1081E0C539D807B9F7C5E984
:10222000D1E089918F3F11F00E94EB1081E0CD3910
:10223000D807B9F7DF91CF910895B0E0A0E0E3E2CD
:10224000F1E10C94ED337C01162F042FC62FD0E062
:10225000C257DE4F28812F3F09F44CC0F894E22F7B
:10226000E295EF70F0E031A12F7081E090E001C0C5
:10227000880F2A95EAF7932F982B91A392A1809526
:10228000892382A378940E94E61085E9C82E81E014
:10229000D82EF701A701485F5F4FF12CE02EE094A4
:1022A000D6019D916D0181919F01215031099F3F80
:1022B00031F1692F62956F7070E0DB0190966C913F
:1022C00070E09F7002C0759567959A95E2F760FD82
:1022D00016C0802BD9018C93FF24F394E417F507E3
:1022E000F9F688818F3F11F00E94EB106F2D812F3E
:1022F0000E94E810CDB7DEB7E8E00C9409348E21D7
:10230000D9018C93EBCF0E94021188E0E0EBF2E060
:10231000DF01982F1D929A95E9F7E8EAF2E0DF01D4
:102320001D928A95E9F788E00E94D8110E94D40393
:102330000895A8E0B0E0EFE9F1E10C94EF338E01ED
:102340000F5F1F4F88E0F80111928A95E9F7F12C91
:10235000EE24E3944E2D6F2DC8010E941D11F394BD
:10236000EE0CF7E0FF12F6CF48E050E0B80188EA43
:1023700092E00E94273421E0009709F420E0892BA5
:1023800041F088E0F801A8EAB2E001900D928A9548
:10239000E1F748E060EB72E088EA92E00E94D91130
:1023A000182F0E94D703812F2896E6E00C940B3457
:1023B0000895CF92DF92EF92FF920F931F93CF93E6
:1023C0006C017B01042F222349F081E080935A02A3
:1023D0000E940E289093590280935802C0915A028D
:1023E000C1110AC0C0E08C2FCF911F910F91FF90B7
:1023F000EF90DF90CF90089580915802909159020C
:102400000E942628059770F310E0A801B601C701C5
:102410000E942734892B41F0A801B601C7010E9410
:10242000343410925A02DFCFC0E0FBCF0E94712AF1
:102430000E942E0E0E947E2A08950E94832A0E94E6
:102440003D0E0E949D2A08950E94A7270E94572AA8
:102450000E94140E0E9416120E941D120E94240E49
:10246000FBCF8091610280FF0DC06091070170E099
:10247000660F771F6038710570F56115710569F198
:10248000862F089581FF07C06091070184E0689F4F
:10249000B0011124EFCF6091070182FD0AC0809145
:1024A00060028823A9F0209106016091070182173C
:1024B00010F088E0ECCF869FC001112433E0880F34
:1024C000991F3A95E1F7622F70E00E946F33D2CFE7
:1024D00068E070E0D5CF8FE7089581E0089580919E
:1024E000610280FF0CC06091030170E075956795F3
:1024F000759567956115710549F1862F089581FFDE
:1025000006C06091030170E075956795F3CF609107
:10251000030182FD0BC090915F029923A1F06091AD
:10252000020180910301961738F0682F70E060383F
:10253000710500F38FE70895899FC001112470E0B1
:102540000E946F33F4CF61E070E0D7CF81E008954F
:10255000803F31F40E943112819580936502089585
:10256000813F19F40E943112F8CF823F31F40E946A
:1025700031128195809364020895833F19F40E947B
:102580003112F8CF893F29F40E946F1280936602BE
:1025900008958A3F21F40E946F128195F7CF8B3FF7
:1025A00031F40E946F1281958093670208958C3FE9
:1025B00019F40E946F12F8CF9CE0980F953070F4D8
:1025C000845F990B21E030E001C0220F8A95EAF781
:1025D00080916302822B8093630208958D3F31F4D2
:1025E0008091610281608093610208958E3F21F4A1
:1025F000809161028260F7CF8F3FB9F780916102CD
:102600008460F1CF40916402803F59F4809165026B
:1026100087FF0DC01092650241110BC0109260023D
:1026200008C0813F81F48091650218169CF3442311
:1026300081F08091660290916702892B09F05AC05F
:1026400010925F020895823F49F447FFF0CF109245
:102650006402809165028111ECCFE0CF833F19F4D1
:102660001416ACF3E4CF90916602893F29F4191651
:10267000F4F610926602DBCF8A3F19F497FFD7CFAA
:10268000F8CF909167028B3F29F497FFD0CF10923B
:102690006702CDCF8C3F19F41916CCF3C8CF9CE05C
:1026A000980F953090F4845F990B21E030E0B901E8
:1026B00002C0660F771F8A95E2F7CB018095909153
:1026C0006302892380936302B2CF8D3F31F48091FE
:1026D00061028E7F80936102AACF8E3F21F48091A8
:1026E00061028D7FF7CF8F3F09F0A1CF809161020A
:1026F0008B7FF0CF08950E940E289C019091640278
:1027000080916502982B21F030935E0220935D0248
:102710009091660280916702982B21F030935C02C1
:1027200020935B0282E692E00E94D026089586E024
:10273000E2E6F2E0DF011D928A95E9F7109260026D
:1027400010925F02109261020895A6E0B0E0EBEAF9
:10275000F3E10C94F33386E0E2E6F2E0DE01119659
:1027600001900D928A95E1F729813A814B815C8134
:102770006D817E8180E090E02696E2E00C940F343B
:10278000FC01828181110EC0838181110BC0848183
:10279000811108C091E08581811101C090E0892FED
:1027A0008170089581E0FCCFA6E0B0E0EAEDF3E1AE
:1027B0000C94F23386E0E2E6F2E0DE01119601903D
:1027C0000D928A95E1F710926402109265021092C0
:1027D0006602109267028B819C81892B89F080911F
:1027E0005D0290915E020E942628AC0190916002E9
:1027F0009923C9F1809108018417150608F440C097
:102800008D819E81892B91F080915B0290915C0279
:102810000E942628AC0190915F02992309F471C0AF
:10282000809104018417150608F479C0BE016F5F1A
:102830007F4F82E692E00E945F27811105C082E609
:1028400092E00E94C01381110E947B1386E0FE017A
:102850003196A2E6B2E001900D928A95E1F72696B4
:10286000E3E00C940E34209109018AE0289F900146
:1028700011242417350720F69F5F9093600202C051
:102880009F3FD1F71B81112359F00E9431129FEF16
:1028900011160CF491E0899F802D1124809364021D
:1028A0001C81112359F00E9431129FEF11160CF474
:1028B00091E0899F802D11248093650230916402FC
:1028C000332309F49DCF20916502222309F498CF88
:1028D00045EB3403C0011124992359F0909364020D
:1028E00045EB240390011124332339F03093650222
:1028F00087CF81E080936402F3CF81E0809365020B
:102900007FCF209105018AE0289F90011124241790
:10291000350708F08BCF9F5F90935F0202C09F3F07
:10292000D1F71D81112359F00E946F129FEF1116EC
:102930000CF491E0899F802D1124809366021E8102
:10294000112359F00E946F129FEF11160CF491E0C1
:10295000899F802D11248093670230916602332372
:1029600009F464CF20916702222309F45FCF45EB7D
:102970003403C0011124992359F09093660245EB6A
:10298000240390011124332339F0309367024ECF92
:1029900081E080936602F3CF81E08093670246CFA7
:1029A00008950895ACE0B0E0E8EDF4E10C94F33361
:1029B0004F83588769877A878B879C8786E0FE01DB
:1029C0003796DE01119601900D928A95E1F72981E3
:1029D0003A814B815C816D817E8180E090E02C9614
:1029E000E2E00C940F34ACE0B0E0E9EFF4E10C94D9
:1029F000F3330E94D21480E090E02C96E2E00C9435
:102A00000F3421E030E001C0220F4A95EAF7662337
:102A100011F0822B0895209582230895E0919D0165
:102A2000F0919E0109950E94D0140E94D11408953E
:102A30006CE672E082E792E00E945F27882321F033
:102A400082E792E00E94D0261092740210927502E2
:102A5000109276021092770286E0E2E7F2E0ACE6AE
:102A6000B2E001900D928A95E1F70895ACE0B0E0F4
:102A7000ECE3F5E10C94F3334F8358878B879C8705
:102A8000619579876A8786E0FE013796DE011196A7
:102A900001900D928A95E1F729813A814B815C8101
:102AA0006D817E8180E090E02C96E2E00C940F3402
:102AB000A6E0B0E0EEE5F5E10C94F3336091680236
:102AC0007091690280916A0290916B020E94352890
:102AD000672B682B692B09F458C00E941A28609351
:102AE00068027093690280936A0290936B02E0918E
:102AF0009F01F091A0014091720250917302609188
:102B00007402709175028091760290917702099516
:102B1000F42FE52FCB012093720230937302F093D0
:102B20007402E09375026093760290937702A90194
:102B30006F2F7E2F0E943615F42FE52FCB012093A7
:102B4000720230937302F0937402E0937502609303
:102B5000760290937702A9016F2F7E2F0E94F314C3
:102B60002093720230937302409374025093750263
:102B700060937602709377020E94A513809173028E
:102B8000832B809373020E9418152696E2E00C9422
:102B90000F34A6E0B0E0EFECF5E10C94F33386E0FF
:102BA000E2E7F2E0DE01119601900D928A95E1F7DD
:102BB00029813A814B815C816D817E8180E090E04A
:102BC0002696E2E00C940F34A6E0B0E0EAEEF5E1E0
:102BD0000C94F33349835A836B837C838D839E8368
:102BE00086E0FE013196A2E7B2E001900D928A954F
:102BF000E1F72696E2E00C940F34FC01208131814C
:102C00002038310534F02F573109318320838FE785
:102C1000089520388FEF380734F421583F4F31831F
:102C2000208380E80895822F118210820895A1E107
:102C3000B0E0EDE1F6E10C94F0334C87888B998B92
:102C4000152FF62E072FCE01079625E0FC011192D5
:102C50002A95E9F720917E022A3008F03FC00E94B1
:102C6000DB16892B09F060C010927E028B8540E054
:102C700087FD52C060E0812F0E940115182F8091BE
:102C80007C0290917D02009709F040C046E06F8180
:102C900088850E94F21620917A0230917B02820F81
:102CA000931F90937B0280937A0246E069858A8520
:102CB0000E94F2162091780230917902820F931FC0
:102CC00090937902809378028AE792E00E94FD1542
:102CD000F82E88E792E00E94FD15082F1D87FE86DA
:102CE0000F8786E0FE013C96DE01119601900D9261
:102CF0008A95E1F729813A814B815C816D817E81E2
:102D000080E090E06196E5E00C940C34019790939C
:102D10007D0280937C02E2CF61E0812F0E94011549
:102D2000182F84E190E0F3CF80917E028F5F809333
:102D30007E02D4CF80910A0190910B012DE7AC0166
:102D4000249FC001259F900D112408959C01893F67
:102D5000910538F481E090E090930B0180930A0193
:102D60000895EDE7F0E0BF010E945B33A901481B25
:102D7000590BCA01BF010E945B3370930B01609332
:102D80000A010895A4E0B0E0E8ECF6E10C94F13318
:102D900089836A834B832C8304E610E024E030E0CF
:102DA000AE014F5F5F4F60E084E10E943E262496B3
:102DB000E4E00C940D340F931F9304E610E025E03B
:102DC00030E0AC0164E084E10E9465261F910F9120
:102DD00008950E94582520E040E060E080E00E94D5
:102DE000C2160895681708F5861B682F21E0469FD4
:102DF000A0011124649FF001659FF00D1124409102
:102E00000A0150910B01E49FC001E59F900DF49FD2
:102E1000900D1124880F892F881F990B91952223DB
:102E200019F09195819591090895681B20E0DFCFF5
:102E3000EF92FF920F931F93CF93DF93EB01E82F55
:102E4000D1110EC0442321F0F0E0EA50FD4FE4918F
:102E50006E2F7E2F8E2FCDB7DEB7E6E00C940B34AD
:102E60000D2F10E0282F30E0442329F02A503D4F49
:102E7000F901249130E0F6E0CF9FC0011124EFEF7B
:102E8000F0E0BF010E945B33AB018C2F90E0880F14
:102E9000991FA5E5A49FB001A59F700D1124861B65
:102EA000970B982F990F980FBF01601B710B629FB2
:102EB000D001639FB00D729FB00D11248B2F9D9F89
:102EC000B0011124672F7727EF01C61BD70BBE0176
:102ED000629FE001639FD00D729FD00D11247F018E
:102EE000E91AF108E09EB001E19E700DF09E700DB0
:102EF0001124672F7727E61BF70BE29F8001E39FE2
:102F0000100DF29F100D1124E12F722F4230510548
:102F100099F048F44115510569F04130510581F0AF
:102F2000EB2F8D2F07C04430510569F080F04630FB
:102F30005105B1F76E2F8FCFE22F7B2F812FFACF64
:102F4000E22F7D2FF7CFEB2F822F712FF3CF7B2F27
:102F5000822FED2FEFCF41E00E94181708950895BA
:102F60000E94AB170895CF93DF93762FE901682F66
:102F7000842F0E94B017798368838A83DF91CF9171
:102F800008958091B802982F9E7F29F48170826005
:102F90008093B80208958A34E8F381708864F8CF8A
:102FA00088E090E00E9445340895CF92DF92EF923E
:102FB000FF926B017C010E94C117B701A60188E056
:102FC00090E00E946334FF90EF90DF90CF900895DF
:102FD0006091B8027091B9028091BA029091BB02DF
:102FE0000E94D5170895E8EBF2E083E08083118218
:102FF0008FEF8283838314826081718182819381C8
:103000000E94D51708958091B80280FF02C086956E
:10301000089580E008959091BC02933018F49F5F6A
:103020009093BC02882351F06091B8027091B9026C
:103030008091BA029091BB020E94D517089581E059
:103040000E940B1808959091BC02992319F0915099
:103050009093BC02882351F06091B8027091B9023C
:103060008091BA029091BB020E94D517089581E029
:103070000E94231808958091BC0208958093BC0299
:10308000662351F06091B8027091B9028091BA0242
:103090009091BB020E94D517089560E00E943E18EF
:1030A00008958091B90208958091BA02089580919F
:1030B000BB02089570E00E94661E089560911001A1
:1030C0008091B80280FF0BC080910F0123E0829FA6
:1030D000C001112483549D4F0E945A180895809175
:1030E00011019091120123E0829FF0011124E35419
:1030F000FD4F891748F71182108212828F5F339635
:10310000F8CF9091B80290FF0EC0909111012091DC
:10311000120133E0939FF0011124E354FD4F921705
:1031200018F00E945E1808958183608342839F5F38
:103130003396F5CFA3E0B0E0E0EAF8E10C94F33386
:103140009091B80290FF0AC09E012F5F3F4F0E94EE
:10315000B3174B8169818A810E9481182396E2E02E
:103160000C940F34CF93DF93EC016C8170E090E00E
:1031700080E00E945C3120E030E04FE753E40E94A1
:103180007F302BED3FE049E450E40E9485320E94FD
:10319000F2320E94F9302BE43AE34EE25FE30E9400
:1031A000123020EF3BEF48ED52E40E9485320E943E
:1031B0002B31462FE8EBF2E0628181810E949A1860
:1031C0008C818F5F8C83DF91CF910895CF93DF93B4
:1031D000EC01E8EBF2E0438162818C810E949A1855
:1031E0008C818F5F8C83DF91CF910895A3E0B0E055
:1031F000ECEFF8E10C94F1338C0180917F028111A6
:103200000AC09E012F5F3F4F4FEF6FEF0E94B31731
:103210008A8180937F02F8016481613069F0809136
:103220007F0240E0662361F040E0623011F440919B
:103230007F0280E060E004C060917F0240E080E0B7
:103240000E948118F801848190E0019663E070E0AB
:103250000E946F3384832396E4E00C940D34A3E042
:10326000B0E0E5E3F9E10C94EC33082FD62EE42E20
:10327000C22E9091B80290FF29C0E92FE695AE2F9B
:10328000B0E0AB55BE4F8C9180938B029E7F923005
:1032900009F59E012F5F3F4F802F0E94B3174B818E
:1032A00069818A810E9481180093B902D092BA0282
:1032B000E092BB02CC2051F06091B8027091B9024B
:1032C0008091BA029091BB020E94D5172396E9E043
:1032D0000C940834823019F4E090BB02E5CF8630BC
:1032E00019F40091B902E0CF8930D9F38931E1F6C0
:1032F000E9516E2F6170B62EE695F0E0EF50FD4F6C
:103300001491F12C60911301F61618F00E945E18CA
:10331000CBCFF19EC001112470E00E945B33802F5F
:10332000B11014C0860F20911101622F6F0D772705
:10333000771F9B01220F331F260F371F23543D4F4A
:103340004E2D6D2D0E94B317F394DCCF861BEBCF6F
:10335000E8EBF2E09181282F4381628180E1890FBF
:103360000E942F19089581E00E94A8190895E8EBA2
:10337000F2E09181282F4381628180EF890F0E94C2
:103380002F19089581E00E94B7190895E8EBF2E043
:10339000628120E1620F08F46FEF282F4381818161
:1033A0000E942F19089581E00E94C6190895E8EB44
:1033B000F2E0628120E1621B08F460E0282F438183
:1033C00081810E942F19089581E00E94D7190895E4
:1033D000E8EBF2E0438120E1420F08F44FEF282FA1
:1033E000628181810E942F19089581E00E94E8196D
:1033F0000895E8EBF2E0438120E1421B08F440E04D
:10340000282F628181810E942F19089581E00E94F6
:10341000F919089520E00E942F190895EF92FF9264
:103420001F93CF93DF93EC0110E0EE24EA94F12C8C
:1034300060911301161770F00E945E189A818C81BA
:1034400090FF27C08F5F8C83DF91CF911F91FF90FA
:10345000EF90089520911101422F410F5527551FDC
:10346000CA019A01220F331F280F391F23543D4FE1
:1034700070E0C7010E946F33962F8C814091BB0290
:103480006091BA02199F800D11240E94B3171F5F2B
:10349000CFCF8150D8CFB0E0A0E0E1E5FAE10C94C5
:1034A000EC33FC0182810FEF80FF01E010E080919E
:1034B0001301181798F00E945E1880918102013064
:1034C00009F04CC0811102C080911301815080939A
:1034D0008102CDB7DEB7E9E00C940834C091110148
:1034E000C12ED12CCC0DDD2DD11DCE01880F991F01
:1034F000C80FD91FC354DD4F198218821A8234E0D5
:10350000E32EF12CB12C809181028B0D813104F1DD
:103510008F70082E000C990BC816D90691F4809173
:10352000BB028E9DA0018F9D500D1124559547958E
:10353000559547959E016091BA028091B9020E940B
:10354000B317B00EF1E0EF1AF108E9F61F5FAFCF45
:1035500087FFDFCF90911301890FDBCF90E00196B9
:103560006091130170E00E946F33B1CF0F931F93EE
:10357000CF93DF93809111019091120123E0829FFC
:10358000F0011124E354FD4F891740F1C0E0D3E06E
:1035900060911301C61740F10E945E1820910D0141
:1035A00080918002820F8093800290910E01920F91
:1035B00090930E01191654F4082E000C990B4091AB
:1035C00013014150550B841795071CF0219520934A
:1035D0000D01DF91CF911F910F91089511821082FB
:1035E00012828F5F3396D0CF0C2F10E070E0C801AD
:1035F0000E946F3320911101820F482F50E02091DB
:103600008002022E000C330B02171307BCF020912E
:103610000E01022E000C330B201731077CF08D9F1A
:103620009001112423543D4F4091BB026091BA0296
:103630008091B9020E94B317CF5FAACFFA01EE0FB3
:10364000FF1FE40FF51FE354FD4F11821082128219
:10365000F3CFB0E0A0E0EFE2FBE10C94E933EC0142
:103660004C81042F10E09801D8010E94BA339B01CD
:10367000AC010E94D0334B015C01E0E2F0E0E01BC2
:10368000F10BA5E5B0E0AC019B010E94D0336B01CA
:103690007C019F01DF010E94B2339B01AC010E94BB
:1036A000DB339B01AC01280D391D4A1D5B1DC70191
:1036B000B6010E948333F22E822F90E039E23F154B
:1036C00020F143E0249F9001112435952795122F76
:1036D000109500E085E5E82EEF188091130108179A
:1036E00018F10E945E189C8181E0992319F09032B4
:1036F00019F48FEF80930C0180910C01890F8C835A
:10370000CDB7DEB7ECE00C94053425E530E0B90127
:10371000681B790B9B01220F331F260F371F37FFC2
:10372000D4CF2F5F3F4FD1CF8E2D01FD8F2D209114
:103730001101622F600F7727771F9B01220F331F24
:10374000260F371F23543D4F412F6091BA020E942C
:10375000B3170F5FC2CF0F931F93CF93DF93EC018B
:1037600010E000E0909113019017110609F06CF43D
:103770000E945E188C8190E00196817099278C835D
:10378000DF91CF911F910F91089520911101A80110
:10379000420F511D9A01220F331F240F351F23544E
:1037A0003D4F4C816091BA028091B9029695901775
:1037B000110651F04CF0442349F04091BB020E94A5
:1037C000B3170F5F1F4FCECF4423B9F340E0F7CFBD
:1037D000E8EBF2E080818E7F80836081718182815D
:1037E00093810E94D51710928C022FEF80E792E010
:1037F000215080409040E1F700C000000E945E1818
:103800000895E8EBF2E080818E7F808310928C0235
:103810002FEF80E792E0215080409040E1F700C018
:1038200000000E945E18089510928C028091890217
:1038300081110AC081E0809389028091B802817071
:10384000809388020E94011C08956091B8026695D9
:1038500070E04BE050E084E191E00E941A34892B43
:1038600019F481E080938C020E940E2890938302C9
:103870008093820208959091B80290FF2BC09170BE
:10388000811129C092609093B802662351F0609133
:10389000B8027091B9028091BA029091BB020E9465
:1038A000D5176091B802669570E04BE050E084E176
:1038B00091E00E941A34892BA9F010928C0281E0C9
:1038C000809385024091BB026091BA028091B90257
:1038D0000E940A1A0895853210F09864D4CF880F98
:1038E000982BD1CF0E94251CEACF682F9091B80267
:1038F000969581E0890F853208F081E00E943B1C9B
:10390000089581E00E94751C0895682F9091B80277
:1039100096958FEF890F09F484E20E943B1C08956D
:1039200081E00E94851C089561E00E943B1C08957F
:10393000E8EBF2E080818160808386950E94941C90
:1039400008958091B80280FF03C00E94E81B08958B
:103950000E94981C089560E00E943B1C089580918D
:103960008A0281112EC00E94420D811104C00E9462
:10397000EF0D0E94F3170E94D0176093B802709366
:10398000B9028093BA029093BB026E7F61F40E94E9
:10399000F3170E94D0176093B8027093B902809316
:1039A000BA029093BB020E94C11710928C028091C0
:1039B000B80280FF03C086950E94AB1C81E0809313
:1039C0008A020895E8EBF2E0808181608083869529
:1039D0000E94AB1C08951092890280918802811187
:1039E0000E94E21C0E94251C08950F931F93CF9301
:1039F000DF9380918C028823B9F180918B02E09152
:103A0000B802E695E81BE0938402823091F5F0E07D
:103A1000E351FD4FE491CE2FD0E002EB18E180910D
:103A20008502882361F0109285020E940E289093EF
:103A300083028093820210928702109286020E9473
:103A40000E28E0918202F09183028E1B9F0B8F3F24
:103A50009F4750F4EC0FFD1FF0938302E093820226
:103A600082E892E0F8010995DF91CF911F910F91C3
:103A70000895863049F4F0E0E651FD4FE491CE2FF1
:103A8000D0E006EE18E1CBCF893051F4E695F0E0B6
:103A9000E951FD4FE491CE2FD0E00EE01AE1BFCF07
:103AA0008F3051F4E695F0E0EC51FD4FE491CE2FCC
:103AB000D0E00BE41AE1B3CF853149F4F0E0EF51E7
:103AC000FD4FE491CE2FD0E006EB1AE1A8CFC8E27B
:103AD000D0E009E21BE1883109F4A1CF833239F447
:103AE000EFEDF2E0C591D49106EF18E198CFC4EF65
:103AF000D1E00BEA1BE1843209F491CFC0EDD7E0AD
:103B00000FEA17E18CCFFA01811101C0FB01099581
:103B10000895CF93DF93C82FD62F0E9403188C17D8
:103B200048F00E9403188D1728F40E94811CDF9131
:103B3000CF9108958C2F0E94941CF9CF1F93CF939F
:103B4000DF93EC01FB01128111117EC00E94540C25
:103B50008272CC3CFCE5DF0709F49CC008F041C050
:103B6000C63CECE5DE0709F481C0D8F4C33C9CE513
:103B7000D90709F471C030F4C23CDC4509F469C0CE
:103B800011E062C0C43C9CE5D90709F46AC042EC6C
:103B900059E163EB79E1C53CDC4591F70E94831D57
:103BA00053C0C93CFCE5DF0709F46AC068F4C73CB0
:103BB000ECE5DE0709F45FC043ED59E164EE79E11D
:103BC000C83CDC4559F3DCCFCA3C9CE5D90709F475
:103BD0005CC047E358E16FE178E1CB3CDC45F1F2B2
:103BE000CFCFC13DFCE5DF0709F465C098F4CE3CBA
:103BF0009CE5D90709F457C008F451C0CF3CFCE557
:103C0000DF0709F455C0C03DDC4509F0B9CF6EE0CF
:103C100089E04BC0C43D9CE5D90709F452C058F473
:103C2000C23DFCE5DF0709F449C0C33DDC4509F0AE
:103C3000A7CF88E135C0C53D9CE5D90709F444C04C
:103C4000CD35DD4509F09CCF812FDF91CF911F91BC
:103C500008950E94A11CF8CF40E95CE161E87CE195
:103C60009DCF41E85CE160E97CE198CF43EB59E10D
:103C700062EC79E193CF44EE59E163ED79E18ECFC7
:103C800046E05AE165EF79E189CF45EF59E166E019
:103C90007AE184CF4FE158E167E378E17FCF81E0BB
:103CA0000E94941CD1CF65E082E00E94891DCCCF98
:103CB00068E086E0FACF64E18FE0F7CF67E185E165
:103CC000F4CF62E289E1F1CF83E2EACF549A4BB1BB
:103CD0004F7E5BB15061EFB7F8949B01220F331F09
:103CE000260F371F280F391F2817390741F4EFBF58
:103CF0008FE594E00197F1F700C000000895DC0122
:103D00006D91CD0178E05BB9000000C067FF4BB951
:103D1000660F000000C000C000C04BB900C07A951B
:103D200091F7E2CF83E290E00E943D34833289F440
:103D300084E290E00E943D34813059F485E290E0C5
:103D40000E943D3491E0813209F090E0892F81702A
:103D5000089580E0FCCFCF93C82F6FEF811163E20D
:103D600083E290E00E9451346FEFC11161E084E280
:103D700090E00E9451346FEFC11161E285E290E062
:103D80000E945134CF910895089586E290E00E94F8
:103D90003D34682F70E090E080E008950895CF935F
:103DA000C62F0E94CE1E6C2F86E290E00E945134F6
:103DB000CF91089580E00E94AB1E60E070E0CB01DF
:103DC0000E94CF1E0E943E230E941D2481E00E947B
:103DD000AB1E08950E94C41E0E94C51E0E94CE1EE6
:103DE0000E94921E811102C00E94DA1E0895CF9394
:103DF000FB01C281CC2309F19C0122513F452031B6
:103E0000310520F582510E942D24C0E08C2FCF91E6
:103E1000089581E00E94860843E062E081E00E940C
:103E2000CA03F3CF81E00E94920843E062E081E0A0
:103E30000E94CA03EBCF82E0F6CF8031FFE59F07F7
:103E400089F381319F45B9F3C1E0E0CF8031EFE5DF
:103E50009E07F9F281319F45C9F682E0DBCF2FEF53
:103E6000FC0120830895CF93DF93EC018881813892
:103E7000E9F028F4803871F0DF91CF91089582380D
:103E8000C9F08338C9F70E94511889830E945418D9
:103E90008A83F2CF0E9457182FEF829FC00111240E
:103EA0006FEF70E00E945B336983E6CF0E940318D6
:103EB0008983E2CF0E943B18FBCFCF93DF93EC01C5
:103EC0008881813821F128F4803869F0DF91CF9121
:103ED0000895823841F18338C9F70E945718482F56
:103EE0006A81898111C089812FEF829FC0011124CD
:103EF0006FEF70E00E945B33D62F0E945418C82FDA
:103F00000E9451184D2F6C2F0E940A1ADFCF898111
:103F10000E94AB1C8981811103C00E94011CD6CF75
:103F20000E94E21CD3CF89810E944D18CFCFEF921F
:103F3000FF920F931F93CF93DF93EC01062FDC01C9
:103F4000ED91CD01E150E33108F0ACC0F0E0ED5669
:103F5000FB4C0C94A53319828AE08A83602FCE0132
:103F60000E942A29CDB7DEB7E6E00C940B34898194
:103F7000823069F0833071F08130D9F40E941A28C0
:103F80000E94AB336A837B838C839D83E7CF0E943F
:103F9000C51EF6CF7E01B2E0EB0EF11C10E0812FC2
:103FA0000E94DB10F70181937F011F5F1830B9F782
:103FB000D5CF602FCE010E942F1FD0CF89818230B4
:103FC000C1F76A817B818C819D810E94AB330E9405
:103FD000CF1EC4CF4B816A8189810E94002398271C
:103FE000892798279D838C83B9CF2C813D813227E7
:103FF000232732274B816A8189810E942223AECFF9
:104000000E943E23ABCF0E945D1FA8CF0E94331FAA
:10401000A5CF0E94E817A2CF0E94CE2389839ECF0E
:104020000E94D0239827892798279A83898396CF3F
:104030006B8170E089819A81AE014C5F5F4F982758
:10404000892798270E94D32389CF6B8170E08981CB
:104050009A81AE014C5F5F4F9827892798270E946D
:10406000F8237CCF0E941D2479CF0E94EE22D6CF68
:104070006B8170E089819A81AE014C5F5F4F982718
:10408000892798270E94782369CF6B8170E0898106
:104090009A81AE014C5F5F4F9827892798270E942D
:1040A0009C235CCF8FEF888359CFCF93DF93EC01B4
:1040B000FB018281882309F464C1C330FDE5DF0779
:1040C000E0F5CA3F9CE5D90730F49E0122503C45FB
:1040D00024313105D8F50E94580D9093A7028093A2
:1040E000A602C231ECE5DE0709F41FC108F06EC07C
:1040F000C9308CE5D80709F4F2C008F03FC0C530DC
:10410000ECE5DE0709F4DBC058F5C3308CE5D807D1
:1041100009F4CDC008F0CFC08091A6028160C23002
:10412000DC4509F4AEC08091A6029091A7020E94DE
:10413000660D0E94040880E009C0C53AEDE5DE077F
:1041400051F238F4C1369DE5D90729F2DF91CF91BC
:1041500008959E012D5A3D4523303105B8F7BBCF58
:104160008091A6028062C730FCE5DF0709F489C0B0
:1041700008F4B1C08091A602806483C0CD309CE574
:10418000D90709F4BAC070F48091A6028E7FCB30B3
:10419000FCE5DF0709F475C008F4A7C08091A6020A
:1041A0008D7F6FC0CF309CE5D90709F4B6C008F405
:1041B000A8C0C031FCE5DF0709F4B3C0C131DC455C
:1041C00009F0B1CF8091A6028F7B5BC0CF3F9CE509
:1041D000D90709F4B4C098F5CA3FFCE5DF0709F434
:1041E00072C0B8F4C4319CE5D90709F4B6C008F42C
:1041F000A2C0C531DC4509F096CF8091A60282FBB2
:10420000992790F921E0922790FB82F990FB83F99E
:1042100038C0CC3F8CE5D80709F477C008F457C004
:10422000CD3FECE5DE0709F474C08091A7028360FE
:10423000CE3FDC4509F077CF8093A70274CFC1361B
:104240008DE5D80709F496C068F4C130EDE5DE07C6
:1042500009F48CC008F477C0C230DD4509F063CFA3
:1042600080E085C0CD3A9DE5D907E9F068F49091EA
:10427000A602892F8E7F90FF8160C53ADD4509F047
:1042800052CF8093A6024FCFCE3A8DE5D80789F161
:10429000CF3ADD4509F047CF9091A702892F877F5C
:1042A00093FF8860C9CF8091A7028860C5CF8091B5
:1042B000A6028260E6CF8091A6028460E2CF809160
:1042C000A6028860DECF8091A7028160B5CF809181
:1042D000A7028260B1CF8091A6028061D2CF0E94F6
:1042E00004088091A6028068CCCF8091A6028C60E1
:1042F000C8CF8091A702877F9FCF8091A6028B7F36
:10430000C0CF8091A602877FBCCF8091A7028E7F0D
:1043100093CF8091A7028D7F8FCF8091A6028F7E51
:10432000B0CF8091A6028F7DACCF0E94040880910F
:10433000A6028F77A6CF8091A602837FA2CF80911D
:10434000A7028C7F79CF8091A702982F90959170CA
:104350008E7F892B90FB81F96FCF0E94040890918A
:10436000A602892F97FB87F980588BCF81E00E94A6
:10437000F20DD9CE9091A602892F8F7E94FF806195
:1043800080CF81E0E3CEB0E0A0E0E9ECF1E20C9474
:10439000EE33E82FF0E0EA50FC4FD490282F26951A
:1043A0002695269530E0F901EA56FB4F0491877077
:1043B00010E0082E02C0159507950A94E2F70170E7
:1043C0001127F901EA57FB4FE490F12C082E02C0A7
:1043D000F594E7940A94E2F791E0E922FF24F901C9
:1043E000EA58FB4FC491D0E002C0D595C7958A9595
:1043F000E2F7C170DD270115110519F081EE0E9469
:10440000F404E114F10419F086EE0E94F4048D2DF9
:104410000E948A05E114F10419F086EE0E9440051D
:104420000115110519F081EE0E944005CD2B19F000
:104430008CE20E948A05CDB7DEB7E7E00C940A341F
:10444000EF92FF920F931F93CF93DF93EC01162F00
:104450000AE08881882309F454C0813009F04EC0F5
:104460008981813099F47E0122E0E20EF11C8A817B
:104470000E948A05E7012196812F815050F3EFE9D0
:10448000FFE03197F1F700C00000F7CF823041F430
:104490007E0182E0E80EF11C8A810E94F404EACFDA
:1044A000833041F47E01E2E0EE0EF11C8A810E942D
:1044B0004005E0CF843011F02196DDCF2A8122968D
:1044C00090E080E0AE014F5F5F4F2053330B2A3006
:1044D000310548F0019778F2EFE9FFE03197F1F705
:1044E00000C00000F7CF089FB001099F700D112494
:1044F000C901860F971F2981EA01E4CF0E94C321D9
:10450000BACFCDB7DEB7E6E00C940B34EF92FF9252
:104510000F931F93CF93DF938C01F62E8AE0E82E42
:10452000F8018491882309F454C0813009F04DC00A
:10453000E8012196FE018491813091F42196FE01DB
:1045400084910E948A058E010F5F1F4F8F2D81502D
:1045500038F3EFE9FFE03197F1F700C00000F7CF43
:10456000823039F4E8012296FE0184910E94F4041D
:10457000EACF833039F4E8012296FE0184910E944B
:104580004005E1CF8430F9F6E8012296FE0124913E
:1045900090E080E0FE0131962053330B2A30310544
:1045A00048F0019780F2EFE9FFE03197F1F700C0A2
:1045B0000000F7CFE89EA001E99E500D1124C9012B
:1045C000840F951F2491EF01E5CF0E94C321E801DC
:1045D000BACFCDB7DEB7E6E00C940B3484E0089593
:1045E00050E0440F551F9EE0699F400D511D11245E
:1045F00090E7899F400D511D1124CA0187960895A7
:104600000F931F93CF93DF938430C8F46830B8F4CE
:104610004730A8F40E94F0228C010E943D34C82F3C
:10462000D0E0DC2FCC27C80101960E943D349E01CA
:10463000282BC901DF91CF911F910F91089590E030
:1046400080E0F8CF0F931F93CF93DF93122F032FA8
:10465000843078F4683068F4473058F40E94F022CF
:10466000EC01602F0E945134612FCE0101960E940F
:104670005134DF91CF911F910F910895B0E0A0E0E8
:10468000E4E4F3E20C94EB338FE1C82E81E0D82E02
:10469000D0E0C0E0760110E01CC00E945E0321E083
:1046A00030E08C171D0621F01CF0F50125913491A6
:1046B000402F612F8C2F0E94222382E0A80EB11C74
:1046C0000F5F073051F71F5F8EE0E80EF11C1830C6
:1046D00019F0570100E0E1CF219680E7C80ED11C08
:1046E000C430D105B9F6CDB7DEB7EAE00C94073493
:1046F000EF92FF920F931F93CF93DF93EC018A0108
:104700007C01E60EF71ECE018796CE15DF0529F453
:10471000CDB7DEB7E6E00C940B34C03C21E0D20705
:1047200040F40E943D34F80180830F5F1F4F2196B3
:10473000EACFF8011082F9CFB0E0A0E0E2EAF3E2BC
:104740000C94ED337C016A018C01060F171FEC01FC
:10475000CE018796C017D10729F4CDB7DEB7E8E0C0
:104760000C940934C03C21E0D20740F4FE01EE195C
:10477000FF09EC0DFD1D60810E9451342196E8CFA8
:10478000462F843040F4783030F4673020F4672FBF
:104790000E940023089590E080E0089580E108954C
:1047A00089E192E00895EF92FF920F931F93CF93C8
:1047B000DF93EC018A017C01E60EF71ECE018951E0
:1047C0009E4FCE15DF0529F4CDB7DEB7E6E00C9499
:1047D0000B34C93122E0D20740F40E943D34F80185
:1047E00080830F5F1F4F2196E9CFF8011082F9CF28
:1047F000B0E0A0E0EEEFF3E20C94ED337C016A014F
:104800008C01060F171FEC01CE0189519E4FC01776
:10481000D10729F4CDB7DEB7E8E00C940934C931EB
:1048200022E0D20740F4FE01EE19FF09EC0DFD1D58
:1048300060810E9451342196E7CFCF93DF93C7EE7A
:10484000D1E060E0CE010E9451342196C11584E090
:10485000D807B9F7DF91CF910895A4E0B0E0E3E382
:10486000F4E20C94EE33F82E8FE08F1548F18FEFC1
:1048700093E00E943D34811123C007EE11E0F11056
:1048800023C019821A821B821C82DD24D3947801F2
:104890008FEFE81AF80AC8010E943D3489831A8212
:1048A000882371F09FEF980F9330D8F48A83D982D0
:1048B0000E5F1F4FC7010E943D348B83811112C0D0
:1048C0002496E7E00C940A34011584E01807C1F33C
:1048D000C8010E943D34811101C0FA940F5F1F4F3F
:1048E000CECF870160E0CE0101960E942022CFCF7B
:1048F000CF93DF93EB0186319C4511F50E94540C58
:104900009A81992399F08A7A91E009F490E0909342
:104910008D02811109C089E20E942C0C0E94950C25
:1049200080E0DF91CF91089585E3F6CF80918D02ED
:10493000811104C089E20E94340CF0CF85E3FBCFE3
:1049400081E0EFCF0F931F93CF93DF93C42FD22F2C
:10495000FC0182818823C9F0409390020E940E28B6
:1049600090938F0280938E0280E28C0F883040F407
:10497000C77081E001C0880FCA95EAF70E949305CD
:10498000DF91CF911F910F91089510919002141310
:1049900032C080918E0290918F020E942628883C1E
:1049A000910548F5C0E2CD0F1D17B9F080E2810FE7
:1049B000883040F4177081E001C0880F1A95EAF73B
:1049C0000E949A05C83048F481E09D2F977001C07D
:1049D000880F9A95EAF70E949305802F0E948A0516
:1049E000C83070F6D77081E001C0880FDA95EAF719
:1049F0000E949A05C5CF80E28C0F883008F6C770F8
:104A000081E001C0880FCA95EAF7F2CF0F939C01AD
:104A1000CB01233F4CE5340759F1A8F4283DFCE5D0
:104A20003F0701F1293D4CE53407D1F1273D3C45D5
:104A300091F406E221EE41EE67ED7CE50E94A224AE
:104A400080E00F910895253FFCE53F07E9F0B0F0C5
:104A5000263F3C45F9F0FC018281882339F1109210
:104A60009002EFCF07E225EE45EE68ED7CE5E6CF5C
:104A700006E221EE40EE63EF7CE5E0CF07E225EEB3
:104A800044EE64EF7CE5DACF06E221EE42EE65EF1C
:104A90007CE5D4CF07E225EE46EE66EF7CE5CECF8F
:104AA00008E221E045EE69ED7CE5C8CF81E0C9CFA1
:104AB0001092B9008CE08093B8000895B0E0A0E0B7
:104AC000E4E6F5E20C94EA33B82EEB010E940E28DE
:104AD0006C01EE24E394F12CC431D10560F025E0A3
:104AE000E22EF12CCF3FDC0731F0CE0164E170E023
:104AF0000E945B337B0184EAA82E94E8992E1092E1
:104B0000BC00A092BC000E940E288C018091BC00C9
:104B100087FF0DC08091B900887F8830F9F08091BF
:104B2000B900887F8031D1F00FEF1FEF08C0C801B6
:104B30000E942628E816F90648F70EEF1FEFCF3F30
:104B4000DC07E9F2C6010E942628C817D907B8F683
:104B5000C801CDB7DEB7EBE00C940634B092BB00D1
:104B60009092BC000E940E288C018091BC0087FFAF
:104B70000AC08091B900887F883111F08034A1F695
:104B800010E000E0E5CFC8010E942628E816F906EB
:104B900060F7D3CF0F931F93CF93DF93EB018093F5
:104BA000BB0084E88093BC000E940E288C01809199
:104BB000BC0087FF11C02091B900287F81E090E000
:104BC000283211F490E080E0919581959109DF9170
:104BD000CF911F910F910895CF3FDC0741F3C8019A
:104BE0000E942628C817D90710F78EEF9FEFEFCF46
:104BF0000F931F93CF93DF93EC0184EC8093BC0061
:104C00000E940E288C018091BC0087FF08C0809113
:104C1000BB0090E0DF91CF911F910F910895CF3F9E
:104C2000DC0789F3C8010E942628C817D90758F75E
:104C30008EEF9FEFEFCF0F931F93CF93DF93EC0196
:104C400084E88093BC000E940E288C018091BC00F7
:104C500087FF08C08091BB0090E0DF91CF911F914A
:104C60000F910895CF3FDC0789F3C8010E942628E1
:104C7000C817D90758F78EEF9FEFEFCFB0E0A0E04D
:104C8000E4E4F6E20C94ED33C62F6A017901B80131
:104C90000E945E2597FD0CC0B8018C2F0E94CA258A
:104CA000E601EC0CFD1CCE15DF0511F097FF08C0E6
:104CB00024E92093BC00CDB7DEB7E8E00C940934BA
:104CC000B80189910E94CA25EECFB0E0A0E0EBE6E2
:104CD000F6E20C94ED33F82EE62EEA016901B801F4
:104CE0000E945E2597FD15C0B8018E2D0E94CA2531
:104CF00097FD0FC0B8018F2D81600E945E25F12CB9
:104D0000E12C21E0C21AD108EC14FD04E0F497FF75
:104D10000DC024E92093BC001816190614F490E085
:104D200080E0CDB7DEB7E8E00C940934C8010E94FA
:104D3000F82597FD04C0FE01EE0DFF1D80832FEFC7
:104D4000E21AF20AE1CF97FDE4CFC8010E941B26C8
:104D500097FDDFCFCC0DDD1D8883DBCF9093DB018A
:104D60008093DA01089590939602809395020895B6
:104D7000E0919502F0919602309729F00190F08130
:104D8000E02D0995089580E00895E0919502F09155
:104D90009602309721F00280F381E02D0995089565
:104DA000E0919502F0919602309739F022E0DC0113
:104DB0002C930480F581E02D0995089520919302AC
:104DC000309194022817390771F0909394028093E0
:104DD0009302E0919502F0919602309721F00680BF
:104DE000F781E02D0995089520919102309192026A
:104DF0002817390771F09093920280939102E09105
:104E00009502F0919602309721F00084F185E02D13
:104E1000099508959C012E5F3F4FAC01485F5F4F9D
:104E200080E02417350709F40895F90191919F0155
:104E30009923B9F38F5FF5CF662349F0FC013296D1
:104E400008962191261729F0E817F907D1F780E095
:104E5000089581E008959C01FC0132969FEF80E067
:104E60004191461751F09F3F19F4411101C0982F0D
:104E70008F5F8630A9F79F3F09F40895290F311DF0
:104E800097FD3A95F90162830895FC0132960896E0
:104E90002191261303C0DF0111971C92E817F9072F
:104EA000B9F708950E942B2708950E944527089579
:104EB000029626E0FC0111922A95E9F7089546E052
:104EC00050E00E94273421E0892B09F420E0822F52
:104ED000089508950E9469270895811106C081E010
:104EE000809397020E946A27089582E0F9CF83E0B9
:104EF000809397020E946A2708950E946D27089563
:104F000081E0809397020E946A2708950E9480277B
:104F10000895089508950E948A2708950895089590
:104F20000E9489270895CF930E948E270E9499118D
:104F30000E948F27C0E08C2F0E94DB10811105C0DA
:104F4000CF5FC830C1F7CF91089581E0FCCF85B71E
:104F5000806885BF85B7806885BF08951F921FB69A
:104F60001F9211248F939F93AF93BF9380919802C8
:104F7000811113C08091ED029091EE02A091EF0299
:104F8000B091F0024196A11DB11D8093ED02909366
:104F9000EE02A093EF02B093F002BF91AF919F9108
:104FA0008F911F901FBE1F9018958091F50284303D
:104FB00031F10E9453041092980288E190E020E4BD
:104FC0000FB6F894A895809360000FBE2093600000
:104FD00083B7817F846083BF83B7816083BF789408
:104FE000889583B78E7F83BF0FB6F894A89580917C
:104FF0006000886180936000109260000FBE089589
:105000000E9404080E945C04089582E084BD93E03D
:1050100095BD9AEF97BD80936E0008952FB7F894D1
:105020008091ED029091EE02A091EF02B091F0021A
:105030002FBF08952FB7F8946091ED027091EE02A2
:105040008091EF029091F0022FBF08959C014FB71D
:10505000F8948091ED029091EE02A091EF02B09150
:10506000F0024FBF821B930B0895CF92DF92EF9215
:10507000FF922FB7F894C090ED02D090EE02E0902E
:10508000EF02F090F0022FBFA7019601261B370B0D
:10509000480B590BCA01B901FF90EF90DF90CF90F8
:1050A000089578941F921FB61F9211248F939F9397
:1050B000AF93BF938091ED029091EE02A091EF0229
:1050C000B091F0020196A11DB11D8093ED02909365
:1050D000EE02A093EF02B093F002BF91AF919F91C7
:1050E0008F911F901FBE1F90189581E08093E00064
:1050F00080E28093D8001092C9008FE19EE401976E
:10510000F1F700C0000087E090EBDC018093FE0225
:105110009093FF02A0930003B093010388E19CE009
:105120000FB6F894A895809360000FBE909360002E
:10513000FFCF88E19CE00FB6F894A89580936000BB
:105140000FBE90936000FFCF8091A4020895089550
:105150009C0184E08093E9009FEF8091E8009150EA
:1051600085FD06C085ED8A95F1F700009111F5CF18
:105170008091E80085FF0CC050E040E066E070E000
:10518000C9010E943C2B8091E8008E778093E80053
:105190000895CF93DF93EC0181E08093E9008FEFD6
:1051A0009091E800815095FD06C095ED9A95F1F734
:1051B00000008111F5CF8091E80085FF14C050E018
:1051C00040E068E070E0CE010E943C2B8091E80056
:1051D0008E778093E80088E0FE01ACE9B2E00190B0
:1051E0000D928A95E1F7DF91CF910895809399020E
:1051F00070939B0260939A028091F5028430F9F4D7
:105200008093E9008FEF9091E800815095FD06C0F2
:1052100095ED9A95F1F700008111F5CF8091E800A6
:1052200085FF0DC050E040E063E070E089E992E066
:105230000E943C2B8091E8008E778093E8000895CF
:10524000BC0184E00E94F6280895BC0183E00E941E
:10525000F6280895CF93FC01603221F58091F50284
:10526000843001F5C091E900CF702091EC00922FBD
:10527000917020FD90E8C92B82E08093E900809135
:10528000E80080FF0CC050E040E060E270E0CF0139
:105290000E943C2B8091E8008E778093E800CF70CD
:1052A000C093E900CF9108958091F402811109C063
:1052B0000E941B2D0E94782D8091E20084608093D3
:1052C000E20008951092F40208950E948027089544
:1052D0006091F10281E0611101C080E00E947727B6
:1052E00008959091F50281E0943009F080E060919A
:1052F000F1020E947D27089542E061EC81E00E9466
:10530000972C42E261EC84E00E94972C42E261EC2F
:1053100082E00E94972C42E260EC83E00E94972C8E
:105320009091F50281E0943009F080E06091F10203
:105330000E946D2708958091F702833009F463C0BD
:1053400030F48130E1F1823009F4A0C008958A3050
:1053500009F48CC08B3009F471C0893009F052C057
:105360008091F602813209F04DC08091FA0290914D
:10537000FB02009719F0029709F044C08091E80001
:10538000877F8093E8008091E80082FF37C090918A
:10539000F3008091F200029731F48091F1008130A6
:1053A00011F0863021F48091F1008093A402809165
:1053B000E8008B778093E8000E94CB2C23C080917B
:1053C000F602813AF9F48091E800877F8093E80043
:1053D0008091FA029091FB02892B61F468E08CE9DC
:1053E00092E070E00E94DA2B8091E8008B77809346
:1053F000E800089560E090E080E0F3CF8091F5024E
:105400008111C1CF08958091F602813AD9F7809138
:10541000FA029091FB02892BA9F78091E800877F1F
:105420008093E8008091E80080FFFCCF80912B0101
:105430008093F1008091E8008E77BCCF8091F602D6
:10544000813201F78091FA029091FB02892BD1F60B
:105450008091E800877F8093E8000E94CB2C8091A8
:10546000F80280932B010E94040808958091F602AF
:10547000813241F68091E800877F8093E8000E94A6
:10548000CB2C8091F9028093A50208958091F602B9
:10549000813A09F0B7CF8091E800877F8093E800D8
:1054A0008091E80080FFFCCF8091A502C1CF84B736
:1054B000877F84BF0FB6F894A895809160008861BB
:1054C00080936000109260000FBE80E890E00FB6FD
:1054D000F89480936100909361000FBE0E9486272C
:1054E00008950E941B2D0E94782DE2EEF0E080814D
:1054F0008460808378940E94F72F08958FE191E073
:105500000E94B32608958091F502853031F4809190
:10551000F502853019F00E94002808950E94D527D1
:105520008091F302882399F30E949327882379F3CB
:105530000E94262B0E940408EACFA0E2B0E0E3EA32
:10554000FAE20C94F3338091F502843009F583E09C
:105550008093E9008091E80082FF1AC08091E80002
:1055600090E085FF09C050E040E060E270E0CE01CD
:1055700001960E948B2B91E08091E8008B778093BD
:10558000E800992329F060E2CE0101960E94971F5E
:10559000A096E2E00C940F340E94CF2A0895292FA0
:1055A00033272330310521F168F42130310509F426
:1055B00043C02230310509F444C090E080E030E07F
:1055C00020E026C02132310551F122323105A9F700
:1055D0006330710590F7FB01EE0FFF1FE353FE4FA1
:1055E0002081318166537E4FFB01808190E010C0A5
:1055F00099278130910581F0009729F00297E9F60B
:10560000E6EAF4E002C0E4ECF4E0849190E09F016B
:10561000FA01318320830895E8EBF4E0F6CF63309C
:10562000710558F6660F771FFB01ED52FE4F208182
:10563000318189E090E0ECCF82E190E023E235E037
:10564000E7CF8BE590E028EC34E0E2CF80E189BD44
:1056500082E189BD09B400FEFDCF8091D8008F7D25
:105660008093D8008091E00082608093E000809178
:10567000E00081FDFCCF0895AF92BF92CF92DF9200
:10568000FF920F931F93CF93DF936C01EB018A017D
:105690000E94EA2CF82E811123C00115110539F062
:1056A000F80180819181C81BD90BC80ED91EB12C7D
:1056B000A12C2097A9F08091E80085FD22C080915F
:1056C000E8008E778093E80001151105A1F0F8013C
:1056D00080819181A80EB91EB182A08285E0F82E4A
:1056E0008F2DDF91CF911F910F91FF90DF90CF9081
:1056F000BF90AF9008950E94EA2C8823D1F2F82E33
:10570000EFCFF60181916F018093F1002197FFEFB8
:10571000AF1ABF0ACECFAF92BF92CF92DF92FF9265
:105720000F931F93CF93DF936C01EB018A010E94CB
:10573000EA2CF82E811123C00115110539F0F8016A
:1057400080819181C81BD90BC80ED91EB12CA12C08
:105750002097A9F08091E80085FD22C08091E800A3
:105760008B778093E80001151105A1F0F801808185
:105770009181A80EB91EB182A08285E0F82E8F2DEE
:10578000DF91CF911F910F91FF90DF90CF90BF904D
:10579000AF9008950E94EA2C8823D1F2F82EEFCF23
:1057A0008091F100F60181936F012197FFEFAF1A0D
:1057B000BF0ACECFFC018091FC029091FD028617BA
:1057C0009707A0F06115710529F49091E8009E7784
:1057D0009093E80090E06115710551F4911108C0B3
:1057E0008091E80082FF34C080E00895BC01F2CFD0
:1057F0008091F5028823C1F18530C1F18091E800E4
:1058000083FD30C08091E80082FDEACF8091E800FE
:1058100080FFE1CF8091F3002091F200382F6115D5
:10582000710519F02830310558F091E02830310524
:1058300009F090E02091E8002E772093E800CBCF8C
:1058400081918093F100615071092F5F3F4FE7CF45
:105850008091F502882341F0853041F08091E80085
:1058600083FFBECF81E0089582E0089583E008952C
:10587000FC018091FC029091FD0286179707A0F031
:105880006115710529F48091E8008E778093E80016
:1058900090E06115710551F4911108C08091E80004
:1058A00082FF35C080E00895BC01F2CF8091F502FF
:1058B0008823C9F18530C9F18091E80083FD31C0AA
:1058C0008091E80082FDEACF8091E80080FFE1CF7F
:1058D0008091F3002091F200382F6115710519F0C5
:1058E0002830310558F091E02830310509F090E07A
:1058F0008091E8008E778093E800CBCF84918093ED
:10590000F1003196615071092F5F3F4FE6CF8091D2
:10591000F502882341F0853041F08091E80083FF53
:10592000BDCF81E0089582E0089583E00895982F27
:10593000973028F08F708093E90081E0089590936C
:10594000E900242F762F50E0981731F07091EC0089
:105950002091ED005091F00021FD02C09F5FE8CF43
:105960003091EB003E7F3093EB003091ED003D7FB6
:105970003093ED003091EB0031603093EB00709389
:10598000EC002093ED005093F0002091EE0027FDF5
:10599000E5CF80E008958091F60287FF13C08091E3
:1059A000E80082FF06C08091E8008B778093E800D2
:1059B00004C08091F5028111F2CF08958091F50223
:1059C0008823D9F38091E80080FFF8CF8091E80028
:1059D0008E77ECCF2091E4003091E50095E6A901A7
:1059E0002091EC00822F817020FF06C08091E8009A
:1059F00080FF06C080E008952091E80022FD1AC0D3
:105A00008091F502882389F0853089F08091EB0040
:105A100085FD0FC02091E4003091E5004217530747
:105A2000F9F29150E1F684E0089582E0089583E070
:105A3000089581E008950E948A2D0E94922DE0EE43
:105A4000F0E0808181608083E8EDF0E080818F77F5
:105A5000808319BCA7EDB0E08C918E7F8C93808100
:105A60008F7E80831092F40208950F931F93CF933B
:105A7000DF930E948A2D0E94922DC8EDD0E088818C
:105A80008F77888388818068888388818F7D8883E9
:105A900019BC1092F5021092F1021092F3021092CA
:105AA000F20200EE10E0F80180818B7F8083888114
:105AB0008160888342E060E080E00E94972CE1EE04
:105AC000F0E080818E7F8083E2EEF0E08081816073
:105AD0008083808188608083F80180818E7F8083CD
