:100000000C9409030C9441030C9441030C94410398
:100010000C9441030C9441030C9441030C94410350
:100020000C9441030C9441030C947E290C94522AA5
:100030000C94B1230C9441030C9441030C944103A0
:100040000C9441030C9441030C9441030C94410320
:100050000C9441030C9438240C9441030C944103F8
:100060000C9441030C9441030C9441030C94410300
:100070000C9441030C9441030C9441030C944103F0
:100080000C9441030C9441030C9441030C944103E0
:100090000C9441030C9441030C9441030C944103D0
:1000A0000C9441030C9441030C94410307634236C2
:1000B000B79BD8A71A39685618AEBAAB558C1D3CF9
:1000C000B7CC5763BD6DEDFD753EF6177231BF00BD
:1000D0000000803F05A84CCDB2D44EB93836A902F5
:1000E0000C50B9918688083CA6AAAA2ABE00000036
:1000F000803F68747470733A2F2F716D6B2E666D2C
:100100002F0A00514D4B2069732074686520626589
:100110007374207468696E672065766572210029A2
:10012000001A0015001C002A002C4226002B001685
:100130000009001800280010002300E1001B00192E
:10014000000C00520036002000E0002C4105001297
:1001500000510037003700E3002C00110013004F5E
:1001600000E50027001D0006000B000F001E0050D8
:10017000001F00040007000A000E0021002D43228A
:10018000001400080017000D002400E200250029DB
:10019000001F00210023002A002D0026002B00163E
:1001A0000009002400280010002300E1001B0019B2
:1001B000002500520036002000E000000005002667
:1001C00000510037003700E3002C00000027004FEB
:1001D00000E50027001D0006000B000F001E005068
:1001E000001F00040007000A000E0021001E00226C
:1001F000001E00200022002D002400E2002500291E
:10020000003B003D003F002A00000026002B0016A6
:100210000009004000280010002300E100CC5CC869
:100220005C4100520036002000E0002C00CA5C4215
:1002300000510037003700E3002C00C35C43004F3F
:1002400000E5002700C25CC65C0B000F001E0050DA
:10025000001F00040007000A000E00210000002219
:10026000003A003C003E000D002400E20025002979
:1002700000450069006B002A002C0026002B0016A8
:100280000009006C00280010002300E100CC5CC8CD
:100290005C6D00520036002000E0002C00CA5C6E4D
:1002A00000510037003700E3002C00C35C27004FEB
:1002B00000E5002700C25CC65C0B000F001E00506A
:1002C000001F00040007000A000E002100000022A9
:1002D00000440068006A000D002400E200250000D0
:1002E000047F3F1F643214643214783C1E1E140ACB
:1002F00005FFAA7F55400001010101010101010133
:1003000002020202020202020203030303030303C6
:100310000304040404040404050505050506060693
:100320000606070707070708080808090909090A50
:100330000A0A0B0B0B0C0C0C0D0D0D0E0E0E0F0FF5
:100340000F10101111111212131314141515161683
:100350001717181819191A1A1B1B1C1D1D1E1E1FF2
:100360002020212222232424252626272829292A41
:100370002B2C2D2D2E2F3031323233343536373869
:10038000393A3B3C3D3E3F40414243444546474865
:10039000494A4C4D4E4F50515354555658595A5B3B
:1003A0005D5E5F616264656668696B6C6D6F7072DB
:1003B000737577787A7B7D7E8082838587888A8C47
:1003C0008E8F91939596989A9C9EA0A2A3A5A7A97B
:1003D000ABADAFB1B3B5B7BABCBEC0C2C4C6C9CB72
:1003E000CDCFD1D4D6D8DBDDDFE2E4E7E9EBEEF028
:1003F000F3F5F8FAFDFF00000000000000002A2BD2
:1004000028000000000000000000000000000000C4
:100410000029000000002C1E34202122243426272D
:10042000252E362D3738271E1F202122232425264E
:100430003333362E37381F0405060708090A0B0C1C
:100440000D0E0F101112131415161718191A1B1C64
:100450001D2F3130232D350405060708090A0B0C22
:100460000D0E0F101112131415161718191A1B1C44
:100470001D2F3130354C000000000000000000004E
:10048000000000000000000000000000000000006C
:10049000000000000000000000007E0F00D4FFFFFD
:1004A000FFC700000078100363006F006F006C004E
:1004B00037003500360000000A036D002E006B0087
:1004C000690000000403090409025B00030100A0A5
:1004D000FA090400000103010100092111010001D2
:1004E00022400007058103080001090401000203FE
:1004F00000000009211101000122220007058203EA
:100500002000010705030320000109040200010384
:10051000000000092111010001227B00070584036E
:100520002000011201000200000008434D5607019F
:1005300000010200010660FF0961A10109621500C6
:1005400026FF009520750881020963150026FF002B
:10055000952075089102C005010902A101850209D3
:1005600001A1000509190129081500250195087543
:100570000181020501093009311581257F95027538
:1005800008810609381581257F95017508810605C2
:100590000C0A38021581257F950175088106C0C0B7
:1005A00005010980A101850319012AB7001501265B
:1005B000B700950175108100C0050C0901A10185E6
:1005C0000419012AA002150126A0029501751081C7
:1005D00000C005010906A101050719E029E715007A
:1005E00025019508750181029501750881010507AE
:1005F000190029FF150026FF0095067508810005E2
:100600000819012905950575019102950175039158
:1006100001C011241FBECFEFDAE0DEBFCDBF04B6AC
:1006200003FE18C08091DD029091DE02A091DF02EE
:10063000B091E0028730904BA740B04B59F4109234
:10064000DD021092DE021092DF021092E002E0E082
:10065000F8E3099511E0A0E0B1E0EEE2F1E602C0B6
:1006600005900D92A03DB107D9F722E0A0EDB1E0D1
:1006700001C01D92AD3DB207E1F70E94E0110C945C
:100680006C300C940000813B2DE5920729F0823BF1
:100690009D4561F081E00895FB0182818823D1F3BB
:1006A00060E083E091E00E94DF1FF4CFFB018281D4
:1006B000882381F360E082EF90E0F5CF84E0089535
:1006C00081E008950E944303089508950E94650300
:1006D0000895A5E0B0E0EFE6F3E00C94D92F49834C
:1006E0005A833091D70189819A81311119C06623CB
:1006F00099F0222389F00E94F608182F682F89812B
:100700009A810E94D20869817A81812F0E941921E1
:100710002596E3E00C94F52F0E94E408182FF3CF00
:100720000E94F60869817A81F1CFFC01262F408171
:1007300051816281738184810E946903089581E0FF
:100740000895CF93DF93EC0160E00E949503BE0112
:100750000E946603DF91CF910895E1E0F0E0DF01B0
:1007600002C0AA0FBB1F6A95E2F7BD01DF0102C0FC
:10077000AA0FBB1F4A95E2F76A2B01C0EE0F2A951C
:10078000EAF7962F9823961302C08E2B0895E095D2
:100790008E230895242F462F682F8091ED010E940B
:1007A000AD030E94320808950E94901008950E949F
:1007B0009410089508950E94C4070E94DA032FEF51
:1007C00084E39CE0215080409040E1F700C00000AD
:1007D00008950E94DB030E945C2408950E94DB03BD
:1007E0000E94802408950F931F93CF93DF938C0171
:1007F00061E00E949503EC01B8010E94501C811138
:1008000006C080E0DF91CF911F910F910895B8014C
:10081000CE010E9462038823A1F3B801CE010E9499
:100820005F22882371F3B801CE010E94AE1D882398
:1008300041F3B801CE010E94D121882311F3B80100
:10084000CE010E94F71A8823E1F2F8018281882301
:1008500061F0CA35FDE5DF0701F158F4C115ECE59B
:10086000DE0791F0CE3DDC4591F0C8010E946003A7
:10087000C9CFCC358DE5D80769F090F0C73ADD4592
:10088000A1F70E94EE03BDCF0E94E903BACF0E94F8
:10089000AF0DF7CF0E94E90CE8CF0E94F30CE5CF33
:1008A0000E94F70CE2CF0E948E230E9474040E94E3
:1008B0006D1908950E9478040E94441A0E9493239F
:1008C000089508950E946104089581E008950E94AA
:1008D000650408950895CF93C82F0E9462048C2F59
:1008E0000E946704CF91089580E00E946B040895F0
:1008F0000E94BB220E946B040895CF930E94BB22EA
:10090000C82F8091D2018C1779F0C093D2010E9438
:100910001D246093D3017093D4018093D5019093EB
:10092000D6018C2F0E946B04CF910895ABE0B0E00C
:10093000ECE9F4E00C94DA2F4F83588769877A87C3
:100940008B8761110E94340C1E821D8285E0FE019E
:100950003796DE01119601900D928A95E1F78C8110
:100960009D81892B61F449815A816B817C818D81C4
:100970009E810E945D0B2B96E2E00C94F62F8981FC
:100980009A8189238F3F79F3CE0101960E949F03BC
:100990008111E9CFF0CFFC01808191810E94230970
:1009A0000895CF93C82F8823B9F08CEF8C0F813A2C
:1009B000A8F46C2F80910001909101010E941F23E7
:1009C000882329F08C2F0E94F40B0E94550C8C2F49
:1009D0000E94EC0B0E94550CCF91089580E28C0F81
:1009E000883048F4C77081E001C0880FCA95EAF7E3
:1009F0000E94170CEFCFEBE5EC0FE33040F4F0E092
:100A0000E85AFE4F808190E00E94E122E5CFE8E5C0
:100A1000EC0FE73150F4F0E0EE0FFF1FE65DFE4F04
:100A2000808191810E94F722D7CFC03FA8F28C2FFE
:100A30000E9464120E943713CFCF882379F19CEF74
:100A4000980F913A28F40E94F40B0E94550C0895D7
:100A500090E2980F983050F4877091E001C0990FA0
:100A60008A95EAF7892F0E941D0CEFCF9BE5980F1E
:100A7000933028F490E080E00E94E122089598E508
:100A8000980F973128F490E080E00E94F7220895B3
:100A9000803F20F00E94BE120E94371308951F93DA
:100AA000CF93DF93182FEB010E94D104209739F4E4
:100AB000812F0E941D05DF91CF911F9108958FE92D
:100AC0009FE00197F1F700C000002197EFCF70E0A1
:100AD00060E0893311F460E570E00E944F050895ED
:100AE000882321F00E94170C0E94550C089588233A
:100AF00021F00E941D0C0E94550C0895B0E0A0E06A
:100B0000E4E8F5E00C94D32F6C01D62FC72FFC013D
:100B10001281F580F2949FE0F9220E940D0CE82EDC
:100B20008823B9F0E12E1123A1F08C2F807F80342F
:100B300021F080E28D0F8830D0F08091860282FF14
:100B400016C082E00E94B80C0E940D0C91E0E82EC5
:100B5000E926BC2EB2948FE0B822FBE0FB1508F426
:100B600068C0EB2DF0E0E259FF4C0C948C2FE12C87
:100B7000F0CF0C2F0F70C07F11F00295007F112372
:100B800099F0002359F080E28D0F883010F0D111D8
:100B900007C0802F0E94170C0E94550C8D2F41C05A
:100BA000802F0E94270CF8CF8D2F0E941D05002357
:100BB00009F43FC080E28D0F883010F0D11104C0DD
:100BC000802F0E941D0C03C0802F0E942D0C0E94BC
:100BD000550C2FC00C2F0F70C07FC03211F0029542
:100BE000007FDD2381F0D13009F463C0112309F4C3
:100BF0006DC0FF2009F463C0F601858180FFCECF70
:100C00008F7085835CC08091860282FD33C0112382
:100C100059F0002329F0802F0E94170C0E94550CD8
:100C200080E00E94D10405C080E00E941D050111F2
:100C3000C7CFEB2DE850FF0B349720F40E94BB2266
:100C40000E946B04EE2089F00E94090C80FD0DC00B
:100C5000F60112820E94030C0E944608C6010E94FF
:100C600084070E94030C0E945208CDB7DEB7E9E06A
:100C70000C94EF2F112389F0F11006C00E94370C5D
:100C8000802B0E947005D5CF21E0F212F7CF0E9491
:100C9000370C802B0E943E0CCCCFF11006C00E9476
:100CA0004B0C802F0E947705C4CF31E0F31609F278
:100CB000F6CF112331F085E08F1508F4BACF802FDD
:100CC000E0CF94E09F1508F4B4CFEBCFFF2049F3B9
:100CD000D93349F4FFEF27EE33E0F15020403040A4
:100CE000E1F700C000008D2F0E941D05A2CF8C2FC0
:100CF00086958695837069F0813009F09ACF8D2FA3
:100D00009C2F9370111102C090E080E00E94F722A6
:100D100090CF8D2F9C2F9370111102C090E080E036
:100D20000E94E12286CF8D2F112329F00E946412A8
:100D30000E9437137ECF0E94BE12FACF8C2F837091
:100D400079F5111176CF4D2F429546954770440F96
:100D5000440F8D2F8F70042E01C0880F0A94EAF77C
:100D60002D2F2071D4FF07C02FE030E001C0220FEB
:100D70004A95EAF72095C695C695C370822BC23076
:100D800049F058F4C13019F00E94200852CF0E9457
:100D90001A084FCF0E9426084CCF0E94170849CF4F
:100DA0008695112311F08C2F8170882309F441CF8F
:100DB0004D2F429546954770440F440F8D2F8F70ED
:100DC000042E01C0880F0A94EAF72D2F2071D4FF5A
:100DD00007C02FE030E001C0220F4A95EAF72095C6
:100DE000C695C695C370822BC23049F058F4C13005
:100DF00019F00E9471081DCF0E946B081ACF0E9443
:100E0000770817CF0E94320814CFCF70112329F032
:100E10008C2F0E9446088D2F34CF8D2F0E9477058E
:100E20008C2F0E94520805CFD23F51F160F4D03F81
:100E3000B9F0D13F81F0112309F449C0F110AECED1
:100E40008C2F8F7121C0D33F11F1D43FA1F7809136
:100E5000860282FD26C08C2F8F71112311F314C0DE
:100E6000112349F084E08F1508F4E3CE8C2F8F71A5
:100E70000E945F08DECE95E09F1508F4DACEF6CF2B
:100E80008C2F8F711111CDCF0E944608D2CE112325
:100E900029F08C2F8F710E943D08CBCE0E9439081B
:100EA000C8CE112349F0CF718C2F0E94460863E011
:100EB0008C2F0E949A0CBDCE81E00E94B80CE1E01C
:100EC000EF1508F0B6CE82E00E94B80CB2CEF11059
:100ED000FFCE8C2F8F71A5CF0F931F93CF93DF93EE
:100EE000EC01688179818A810E942E098C010E941F
:100EF0007D080E941608B801CE010E947E05DF9190
:100F0000CF911F910F910895CF93DF93EC018B81C7
:100F10009C81892B29F08881998189238F3F51F405
:100F2000DF91CF910895CE010E946C07CE010E94FF
:100F3000A103F6CFCE010E94F3038111F4CF0E94EA
:100F40000D0C882369F38A81882351F380918602EE
:100F500082FFE6CF82E00E94B80CE2CF90E080E012
:100F60000E94E12290E080E00E94F7220E94340C6F
:100F70000E94550C0E9453130E94371308950E943B
:100F8000FC0B0E94AE0708950E94240C0E94BF072C
:100F9000089592959F70963091F058F4925F9F70EB
:100FA000923058F4803F19F030F4883E30F481E0FC
:100FB00008959A5FF4CF843FD1F380E00895883E8E
:100FC000B0F3813FD1F7F3CFFC0183819481892B6A
:100FD00029F08081918189238F3F11F480E0089569
:100FE000808191810E9423090E94C9070895A5E08C
:100FF000B0E0EDEFF7E00C94DA2F2596E2E00C94E8
:10100000F62FA6E0B0E0E7E0F8E00C94DA2F2696A1
:10101000E2E00C94F62F08950E940B0808950E94B8
:101020000C088093EE010E94AE07089508950E9477
:101030000F0808959091EE01892B0E940F080895E2
:101040009091EE0189230E940F0808959091EE017E
:1010500089270E940F0808950E940B0808950E9496
:101060002C0808950E942F088093ED010E94AE077E
:10107000089580E00E943208089591E001C0990F20
:101080008A95EAF7892F0E943208089521E030E01E
:1010900001C0220F8A95EAF78091ED01822B0E9410
:1010A0003208089521E030E001C0220F8A95EAF766
:1010B00020958091ED0182230E943208089521E05D
:1010C00030E001C0220F8A95EAF78091ED01822776
:1010D0000E94320808959091ED01892B0E943208F8
:1010E00008959091ED0189230E943208089590910E
:1010F000ED0189270E94320808950895262F277050
:1011000091E001C0990F2A95EAF723E0769567955B
:101110002A95E1F7FB01EE0FFF1FE60FF71FE40F23
:10112000F51F50E040E0682F70E08191DF011197DA
:101130009B01042E02C0369527950A94E2F7217090
:1011400021952827292328272C934F5F5F4F433071
:10115000510559F70895A82FA77023E09695879514
:101160002A95E1F7FC01EE0FFF1FE80FF91FE60FCC
:10117000F71F50E040E080E0219130E00A2E02C0ED
:10118000369527950A94E2F721703327042E01C083
:10119000220F0A94EAF7822B4F5F5F4F43305105CD
:1011A00059F70895262F983070F4873060F4682F2F
:1011B00070E087E0989F600D711D112448ED51E0AB
:1011C000822F0E947E080895292F983068F4873076
:1011D00058F490E068ED71E037E0239F800D911D99
:1011E00011240E94AB08089580E00895CF92DF9209
:1011F000FF920F931F93CF93DF936C010091ED014A
:101200008091EE01082BC7E0D0E010E0FC2EC80171
:101210000C2E02C0959587950A94E2F780FD0CC0CC
:101220002197A0F7F12C8F2DDF91CF911F910F9176
:10123000FF90DF90CF900895B6018C2F0E946E0F23
:10124000019771F3F0CFCF93DF93EC010E94F60882
:10125000BE010E946E0FDF91CF9108951F93CF932F
:10126000DF93EB019091D701992339F0CB010E94D4
:101270002309DF91CF911F910895882369F0CB0155
:101280000E94F608182F682FCE010E94D208BE01D6
:10129000812F0E946E0FEDCFCB010E94E408182F22
:1012A000F6CF1F93CF93DF93C091EF0116E08091AB
:1012B000F0018C1304C0DF91CF911F910895D0E00D
:1012C0001C9FF0011D9FF00D1124EF50FE4F408137
:1012D000518162817381848195810E9401082196E8
:1012E000C770E5CF40912102509122026091230204
:1012F0007091240280912502909126020E9401089B
:1013000008951F93CF93DF9380912602807F09F089
:1013100049C080912302882309F444C08091EF01E1
:10132000C091F0016091210270912202A0912402EB
:10133000B0912502D62FD72316E0C81799F190E077
:10134000109711F0DF3F19F401968770F6CF189FC0
:101350009001199F300D1124F901EF50FE4F41818A
:101360004713F2CF40814613EFCF42814111ECCFBA
:10137000438154814A1B5B0B483C510528F78091FF
:1013800026028F70806180932602F901EA50FE4F99
:1013900080818F708061808381E292E00E94840767
:1013A0000E945109DF91CF911F910895A1E1B0E012
:1013B000ECEDF9E00C94D22F8C0185E0F801DE0110
:1013C0001D9601900D928A95E1F7F801E28081E285
:1013D000C82E82E0D82E60912402709125026115FA
:1013E000710509F44EC19091210220912202892FAA
:1013F00082238F3F09F445C140815181A380B4808D
:10140000F0902302F501E61BF70BFF2009F4EAC078
:1014100080912602382F307FE83CF10508F0A3C008
:1014200031116DC0FE2C251316C0941314C0E110A9
:1014300012C08F708061809326020E947209C601DB
:101440000E94840780912602F80185838F2D619682
:10145000EAE00C94EE2FA114B10429F0842F852327
:101460008F3F09F027C180E0F82FF170DF2E80FF59
:101470003CC08091EF012091F00136E0821315C04D
:101480004D875E878D859E850E942309292F229591
:101490002F702230F0F0243018F59F70F1F0F80131
:1014A0009581907FD1F4D12C1EC090E0389FF0013F
:1014B000399FF00D1124EF50FE4F6181651306C076
:1014C0006081641303C06281E6120FC001968770C9
:1014D000D5CF9F7011F0882331F3805E883018F3E8
:1014E000C8010E948407FD2CB1CFEE2009F4AECFD5
:1014F00080912602816080932602F12CA7CF2513CC
:1015000006C0941304C0F801EE2009F487C0C80196
:101510000E94E407882319F1EE2009F18091260248
:10152000803270F0209121023091220238872F837F
:101530001986BB86AA868C87CE0107960E948407EF
:1015400086E0F801A1E2B2E001900D928A95E1F700
:101550000E9481090E947209FF24F39477CFC80189
:101560000E948407F9CF311113C07A2DB98AA88A55
:101570006E2D89890E94F70781E292E00E9484071C
:1015800086E0F60111928A95E9F70E947209B5CFBB
:1015900025130FC094130DC0E1100BC0F801858313
:1015A000C8010E94840786E0F60111928A95E9F746
:1015B0004DCFC8010E94E407882389F2EE2079F21A
:1015C00080912602803208F4BBCF20912102309115
:1015D00022023A8329831B82BD82AC828E83CE0194
:1015E0000196ACCFE83CF10508F03EC0FE2CEE20A1
:1015F00009F4B5CF25132AC0941328C08091260280
:1016000080FD1BC0982F907FC1F0F8018583903F2B
:1016100031F0982F907F905F8F70892B8583C80160
:101620000E94840786E0F801A1E2B2E001900D92E9
:101630008A95E1F70E94720909CF86E0F801A1E2DC
:10164000B2E001900D928A95E1F700CFC8010E94A7
:10165000E407811175CF8091260281608093260274
:10166000C8010E948407F2CE7A2DB98AA88A6E2D0D
:1016700089890E94F70786E0F60111928A95E9F7B9
:10168000D9CFEE2009F46BCFC8010E94E407F82EF1
:10169000882309F464CF86E0F801A1E2B2E001906A
:1016A0000D928A95E1F781E292E00E94CB040E94BC
:1016B0008109C0CF81E08E25D7CEACE0B0E0E3E673
:1016C000FBE00C94D92F4F83588769877A878B87E3
:1016D0009C87CE0107960E94D609882369F08A85E7
:1016E0009B85892B39F04F815885842F85238F3F27
:1016F00009F06BC016E05FC086E0FE013796DE01A0
:10170000119601900D928A95E1F78A859B85892B28
:1017100089F38F81988589238F3F61F32091F001B0
:1017200030E0C9010196877099274091EF01481771
:10173000190671F40E94C4071092F0011092EF0193
:1017400086E0E1E2F2E0DF011D928A95E9F7D2CF6F
:1017500096E0929FD001939FB00D1124AF50BE4FE1
:10176000FE01319601900D929A95E1F78093F00178
:101770000E945109BFCF819FC00111248F509E4FFD
:101780000E94D6098823E9F0E091EF011E9FF00145
:101790001124EF50FE4F4081518162817381848119
:1017A00095810E9401088091EF0190E00196877079
:1017B00099278093EF018091EF019091F0018913B7
:1017C000DACF2C96E3E00C94F52F69857A858B852A
:1017D0009C850E9401088ECF682F80910001909116
:1017E00001010E9455230895682F80910001909176
:1017F00001010E94582308958091000190910101F8
:101800000E945B23089580912F028595859585958B
:10181000089580912F028770089590912F029770FC
:1018200081E009F480E0089580913A020895909152
:101830003A02892B80933A020895809590913A025A
:10184000982390933A02089510923A020895909145
:101850003902892B8093390208958095909139023D
:101860009823909339020895109239020895809137
:101870003002089508950E943A0C089590918602CE
:1018800092FF08C090913002981721F080933002A7
:101890000E943B0C089580913002882329F0109219
:1018A000300280E00E943B0C0895CF93DF93E091DB
:1018B0000001F091010180913A028083E0910001E2
:1018C000F0910101808190913902892B8083909160
:1018D0003002992381F0E0910001F09101018081B3
:1018E000892B808380910001909101010E940D233A
:1018F00081110E944B0CC0910001D091010148E080
:1019000050E067E272E0CE010E940E30892B59F060
:1019100088E0FE01A7E2B2E001900D928A95E1F71E
:10192000CE010E94C822DF91CF91089508950E94B0
:10193000960C08959091860292FF11C098E0899FBD
:1019400090011124622B60932F020E94460880911F
:101950002F028595859585950E94970C08950E9484
:101960004608089510922F0280E00E94970C089577
:1019700090912F028095892380932F02282F277022
:1019800091F4282F082E000C330B9217130659F0F0
:101990009091860292FF07C08595859585950E9456
:1019A00052080E94B20C08959091860292FB222761
:1019B00020F9281769F080FB92F9909386028091B4
:1019C0008502909186020E94260D82E00E94B80C4A
:1019D00008958091860282FB882780F991E089270B
:1019E0000E94D40C089581E00E94D40C089580E0F8
:1019F0000E94D40C08956FEF7FEF90E080E00E948A
:101A00005630089590E080E00E943230883E9E4F2C
:101A100019F40E94EB1B089580E0089582E090E0A5
:101A20000E942430089583E090E00E9424300895BD
:101A3000CF9384E090E00E942430C82F82E290E0AF
:101A40000E942430982F8C2FCF910895CF93C92FC7
:101A5000682F84E090E00E9438306C2F82E290E0A2
:101A60000E943830CF910895AB01BC018FE090E027
:101A70000E944A300895AB01BC0183E190E00E94CE
:101A80004A30089560E070E0CB010E943B0D08955C
:101A900060E070E0CB010E94340D0E94420D089579
:101AA00068EE7EEF90E080E00E94563060E082E0D9
:101AB00090E00E94383060E083E090E00E9438308F
:101AC0001092EE0160E084E090E00E94383064E023
:101AD00082E290E00E94383060E085E090E00E9471
:101AE000383060E086E090E00E9438306FEF87E0A9
:101AF00090E00E94383040E050E0BA0188E090E089
:101B00000E944A3060E08DE090E00E94383040E072
:101B100050E0BA0188E190E00E944A3060E087E13D
:101B200090E00E94383040E050E0BA018CE190E053
:101B30000E944A3070E060E080E290E00E945630FF
:101B400040E050E0BA0188E190E00E944A3080E035
:101B50000E94041C0E94331C0E94480D08950E949C
:101B6000500D0895682F8EE090E00E94383008955F
:101B70000E941D246093490270934A0280934B0295
:101B800090934C0260934502709346028093470203
:101B9000909348020895089508950E94CC0D0895E9
:101BA00008950E94D00D089588E590E10E94B12229
:101BB0000E94CB0D0E94CD0D089581E008950E94F2
:101BC000DD0D0895089508950E94E20D0E94E30D31
:101BD00008950E9474100E946A0408950E940824C7
:101BE0000E94431C0E943F110E94E90D0E94081AA6
:101BF0000E94D10D0895AAE0B0E0E1E0FEE00C946F
:101C0000D22F0E9455118DE3A82E82E0B82E7501C7
:101C100010E0F70101917F01812F0E9497101F5F53
:101C2000183009F440C00817A1F380914D0281FDDE
:101C30000E949D100E94DF0DC82E10E0812F0E948F
:101C40009710082FF50181915F01081731F1D02E0F
:101C5000D826F12CEE24E3948D2D8E21B1F0CC20EA
:101C6000A1F0FE821F8391E0802F8E2109F490E085
:101C700098870E9411248160782F9A8789874E81E6
:101C80005F8168858A850E949604F394EE0CF7E0E4
:101C9000FF12E2CFF501319700831F5F183071F614
:101CA0000E94B80D20C00813C0CF0E9411248C01DF
:101CB00080913B0290913C0208171907A1F08FEF29
:101CC00089838A831B820E9411248160782F9D83DF
:101CD0008C8349815A816B818D810E949604109377
:101CE0003C0200933B020E944E1A0E9475130E9410
:101CF0007D042A96EAE00C94EE2FCF93DF930E94A6
:101D0000730FEC01811521E5920708F042C081159F
:101D100030E5930708F09FC0883E910530F5803E7E
:101D2000910508F094C0883A910588F4853A9105A8
:101D300008F086C08130910509F489C0009709F444
:101D400086C0049708F083C0D0E0C0E080C08F3B1D
:101D50009105D0F7C85AD0E0CC0FDD1FC55ADE4F31
:101D60000990D881C02DD46472C0811540E29407D7
:101D700050F4C11581E0D80708F069C0C03FD10513
:101D800018F3D06564C081159044F0F2DF70D06A1A
:101D90005EC0811535E5930718F5811544E5940774
:101DA00008F085C0C11583E5D80708F06CC0C115DF
:101DB00022E5D20708F462C0CE018370992721E0A2
:101DC00030E002C0220F331F8A95E2F7C695C69510
:101DD00080E2C89FE0011124C22BD32BDC6837C0FE
:101DE000811539E59307A8F4811548E5940708F0B3
:101DF00063C0C11586E5D80708F0A6CF8C2F0E94D6
:101E00001510C82FD0E0DC2FCC27CC27DF71D06293
:101E10001EC081152AE5920708F453C0905681151B
:101E2000904208F091CF8D2F8F710E94151090E095
:101E3000982F882788279F719C012C2BE901E7CFD9
:101E4000C55AD0E0C757DE4FC881D0E0D064CE017C
:101E5000DF91CF9108958370992721E030E002C08F
:101E6000220F331F8A95E2F7C695C69540E2C49FBC
:101E7000E0011124C22BD32BDD68E9CFDC2FCC2766
:101E8000C16FD06AE4CFCE018370992721E030E0A2
:101E900002C0220F331F8A95E2F7C695C69540E22D
:101EA000C49FE0011124C22BD32BDA68D0CFD82FE6
:101EB000CC27C46FD06ACBCFD82FCC27C06FD06AC5
:101EC000C6CF8F700E94151034E0D695C7953A950D
:101ED000E1F7CF709C2FEC01D069B9CF0E94192196
:101EE0000E947D0E089582389105B9F1B0F48133D6
:101EF000910509F47DC048F48932910509F46DC05B
:101F00008A32910509F47BC008958533910509F45F
:101F10005FC08933910509F10895833E9105D9F198
:101F200038F4803E910529F1823E910579F10895BA
:101F3000863E9105D9F1873E910509F43EC0843E65
:101F4000910541F52091860221FF24C080918502F0
:101F500084FD19C087EE90E00895209185022370DA
:101F600009F05AC02091860223FF14C089E290E054
:101F700008952091850220FD38C03091860230FFFF
:101F800009C024FF43C090E080E0089520918502BD
:101F900022FDF7CF08952091850222FD3AC03091AD
:101FA000860230FD39C024FFF5CFEDCF20918502A8
:101FB00023FFF0CF24FDE7CFCDCF2091850223FD75
:101FC0002EC03091860231FFEECF84EE90E008956E
:101FD0002091850225FFDECFC9CF2091850225FD06
:101FE00021C02091860223FFD5CF89E390E0D2CF94
:101FF0002091850226FFCECF8AE290E008952091BD
:10200000850226FFC7CF81E390E0089583EE90E03C
:10201000089582EE90E0089580EE90E0089586EEB7
:1020200090E0089585E390E008959091850292FFF5
:1020300006C0282F28712830F9F4877F846093FF29
:1020400006C0282F28712831F1F4877E8461209101
:10205000860220FF06C0382F38713830D9F4877FC8
:10206000816021FF06C0282F28712831D1F4877E96
:10207000816194FD877E0895282F24712430F9F61C
:102080008B7F8860DCCF282F2471243101F78B7E71
:102090008861DDCF382F3171313019F78E7F88603C
:1020A000E0CF282F2171213121F78E7E8861E1CF89
:1020B00080E008950E94FB0C08950E9455118FE363
:1020C0009CE90197F1F700C000000E94551180E0E3
:1020D0000E94971080FF04C00E945A100E945C2446
:1020E00008950E945D1008950E94020D811102C0A2
:1020F0000E94AF0D0E940E0D80934D020E94180D9C
:1021000090938602809385020E9471100E94130DA5
:102110000E9417088091ED010E942F0808950895EC
:102120000E948F10089508950E9493100895E82F3B
:10213000F0E0E157FD4F80810895089580EA8A9587
:10214000F1F7089500C008950E949E100895F89434
:10215000E82FE295EF70F0E031A1282F2F7081E099
:1021600090E001C0880F2A95EAF7982F9095932365
:1021700091A392A1892B82A378940895CF93DF93A2
:10218000CCE8D1E089918F3F11F00E94A71081E047
:10219000C339D807B9F7C3E9D1E089918F3F11F06E
:1021A0000E94A71081E0CB39D807B9F7DF91CF9112
:1021B0000895B0E0A0E0EFEDF0E10C94D42F7C01A5
:1021C000162F042FC62FD0E0C457DE4F28812F3F93
:1021D00009F44CC0F894E22FE295EF70F0E031A1E1
:1021E0002F7081E090E001C0880F2A95EAF7932FC5
:1021F000982B91A392A18095892382A378940E9421
:10220000A21083E9C82E81E0D82EF701A701485F0C
:102210005F4FF12CE02EE094D6019D916D018191EC
:102220009F01215031099F3F31F1692F62956F70F5
:1022300070E0DB0190966C9170E09F7002C0759524
:1022400067959A95E2F760FD16C0802BD9018C93B3
:10225000FF24F394E417F507F9F688818F3F11F016
:102260000E94A7106F2D812F0E94A410CDB7DEB75A
:10227000E8E00C94F02F8E21D9018C93EBCF0E94D3
:10228000BE1088E0EFE8F2E0DF01982F1D929A95EA
:10229000E9F7E7E8F2E0DF011D928A95E9F788E0C7
:1022A0000E9494110E94D4030895A8E0B0E0EBE5E9
:1022B000F1E10C94D62F8E010F5F1F4F88E0F801DB
:1022C00011928A95E9F7F12CEE24E3944E2D6F2DAF
:1022D000C8010E94D910F394EE0CF7E0FF12F6CF7C
:1022E00048E050E0B80187E892E00E940E3021E01B
:1022F000009709F420E0892B41F088E0F801A7E875
:10230000B2E001900D928A95E1F748E06FE872E043
:1023100087E892E00E949511182F0E94D703812F21
:102320002896E6E00C94F22F0895CF92DF92EF9278
:10233000FF920F931F93CF936C017B01042F2223F5
:1023400049F081E0809350020E94112490934F0243
:1023500080934E02C0915002C1110AC0C0E08C2F80
:10236000CF911F910F91FF90EF90DF90CF90089544
:1023700080914E0290914F020E942924059770F39C
:1023800010E0A801B601C7010E940E30892B41F070
:10239000A801B601C7010E941B3010925002DFCF86
:1023A000C0E0FBCF0E9458260E94EE0D0E946526D9
:1023B00008950E946A260E94FB0D0E9484260895BB
:1023C0000E94AA230E943E260E94D40D0E94D21190
:1023D0000E94D9110E94E40DFBCF8091570280FF2B
:1023E0000DC06091070170E0660F771F60387105BE
:1023F00070F56115710569F1862F089581FF07C099
:102400006091070184E0689FB0011124EFCF6091D3
:10241000070182FD0AC0809156028823A9F020910D
:10242000060160910701821710F088E0ECCF869FCB
:10243000C001112433E0880F991F3A95E1F7622F0C
:1024400070E00E94562FD2CF68E070E0D5CF8FE7C2
:10245000089581E008958091570280FF0CC060913B
:10246000030170E075956795759567956115710520
:1024700049F1862F089581FF06C06091030170E045
:1024800075956795F3CF6091030182FD0BC0909124
:1024900055029923A1F060910201809103019617E2
:1024A00038F0682F70E06038710500F38FE7089509
:1024B000899FC001112470E00E94562FF4CF61E083
:1024C00070E0D7CF81E00895803F31F40E94ED1194
:1024D000819580935B020895813F19F40E94ED116C
:1024E000F8CF823F31F40E94ED11819580935A021A
:1024F0000895833F19F40E94ED11F8CF893F29F424
:102500000E942B1280935C0208958A3F21F40E945E
:102510002B128195F7CF8B3F31F40E942B128195BE
:1025200080935D0208958C3F19F40E942B12F8CF1E
:102530009CE0980F953070F4845F990B21E030E0B7
:1025400001C0220F8A95EAF780915902822B80936D
:10255000590208958D3F31F4809157028160809334
:10256000570208958E3F21F4809157028260F7CF81
:102570008F3FB9F7809157028460F1CF40915A02A2
:10258000803F59F480915B0287FF0DC010925B027F
:1025900041110BC01092560208C0813F81F4809116
:1025A0005B0218169CF3442381F080915C029091A9
:1025B0005D02892B09F05AC0109255020895823F9E
:1025C00049F447FFF0CF10925A0280915B028111CB
:1025D000ECCFE0CF833F19F41416ACF3E4CF909125
:1025E0005C02893F29F41916F4F610925C02DBCFE5
:1025F0008A3F19F497FFD7CFF8CF90915D028B3FB8
:1026000029F497FFD0CF10925D02CDCF8C3F19F403
:102610001916CCF3C8CF9CE0980F953090F4845FE6
:10262000990B21E030E0B90102C0660F771F8A954F
:10263000E2F7CB018095909159028923809359024A
:10264000B2CF8D3F31F4809157028E7F8093570235
:10265000AACF8E3F21F4809157028D7FF7CF8F3F15
:1026600009F0A1CF809157028B7FF0CF08950E948F
:1026700011249C0190915A0280915B02982B21F0C9
:10268000309354022093530290915C0280915D023A
:10269000982B21F0309352022093510288E592E06A
:1026A0000E94D322089586E0E8E5F2E0DF011D9262
:1026B0008A95E9F71092560210925502109257022D
:1026C0000895FC01828181110EC0838181110BC0AC
:1026D0008481811108C091E08581811101C090E061
:1026E000892F8170089581E0FCCFA6E0B0E0EBE790
:1026F000F3E10C94D92F86E0E8E5F2E0DE011196D3
:1027000001900D928A95E1F710925A0210925B02A5
:1027100010925C0210925D028B819C81892B89F062
:1027200080915302909154020E942924AC0190910F
:1027300056029923C9F1809108018417150608F4FF
:1027400040C08D819E81892B91F0809151029091A2
:1027500052020E942924AC0190915502992309F458
:1027600071C0809104018417150608F479C0BE0178
:102770006F5F7F4F88E592E00E946223811105C060
:1027800088E592E00E94611381110E94371386E070
:10279000FE013196A8E5B2E001900D928A95E1F72D
:1027A0002696E3E00C94F52F209109018AE0289FFA
:1027B000900111242417350720F69F5F909356024D
:1027C00002C09F3FD1F71B81112359F00E94ED11E8
:1027D0009FEF11160CF491E0899F802D11248093B6
:1027E0005A021C81112359F00E94ED119FEF11161E
:1027F0000CF491E0899F802D112480935B0230912D
:102800005A02332309F49DCF20915B02222309F45D
:1028100098CF45EB3403C0011124992359F09093CC
:102820005A0245EB240390011124332339F03093ED
:102830005B0287CF81E080935A02F3CF81E08093DF
:102840005B027FCF209105018AE0289F900111242F
:102850002417350708F08BCF9F5F9093550202C075
:102860009F3FD1F71D81112359F00E942B129FEF3A
:1028700011160CF491E0899F802D112480935C0245
:102880001E81112359F00E942B129FEF11160CF498
:1028900091E0899F802D112480935D0230915C022C
:1028A000332309F464CF20915D02222309F45FCF22
:1028B00045EB3403C0011124992359F090935C0235
:1028C00045EB240390011124332339F030935D024A
:1028D0004ECF81E080935C02F3CF81E080935D0274
:1028E00046CFEF92FF920F931F93CF93DF93EB01AD
:1028F000E82FD1110EC0442321F0F0E0EA50FD4F43
:10290000E4916E2F7E2F8E2FCDB7DEB7E6E00C94CC
:10291000F22F0D2F10E0282F30E0442329F02A5009
:102920003D4FF901249130E0F6E0CF9FC001112422
:10293000EFEFF0E0BF010E94422FAB018C2F90E03F
:10294000880F991FA5E5A49FB001A59F700D1124C4
:10295000861B970B982F990F980FBF01601B710B67
:10296000629FD001639FB00D729FB00D11248B2F19
:102970009D9FB0011124672F7727EF01C61BD70B4E
:10298000BE01629FE001639FD00D729FD00D1124A4
:102990007F01E91AF108E09EB001E19E700DF09E02
:1029A000700D1124672F7727E61BF70BE29F80013C
:1029B000E39F100DF29F100D1124E12F722F423072
:1029C000510599F048F44115510569F04130510520
:1029D00081F0EB2F8D2F07C04430510569F080F056
:1029E00046305105B1F76E2F8FCFE22F7B2F812F0D
:1029F000FACFE22F7D2FF7CFEB2F822F712FF3CF5E
:102A00007B2F822FED2FEFCF41E00E9471140895AC
:102A100008950E9404150895CF93DF93762FE9015E
:102A2000682F842F0E940915798368838A83DF9138
:102A3000CF91089580919702982F9E7F29F48170FD
:102A400082608093970208958A34E8F381708864E5
:102A5000F8CF88E090E00E942C300895CF92DF926A
:102A6000EF92FF926B017C010E941A15B701A6013B
:102A700088E090E00E944A30FF90EF90DF90CF9086
:102A800008956091970270919802809199029091B7
:102A90009A020E942E150895E7E9F2E083E0808310
:102AA00011828FEF8283838314826081718182819E
:102AB00093810E942E1508958091970280FF02C095
:102AC0008695089580E0089590919B02933018F4C4
:102AD0009F5F90939B02882351F0609197027091C1
:102AE00098028091990290919A020E942E15089561
:102AF00081E00E946415089590919B02992319F03A
:102B0000915090939B02882351F0609197027091AD
:102B100098028091990290919A020E942E15089530
:102B200081E00E947C15089580919B020895809316
:102B30009B02662351F060919702709198028091F8
:102B4000990290919A020E942E15089560E00E94C9
:102B5000971508958091980208958091990208959B
:102B600080919A02089570E00E94BF1B08956091C1
:102B70000E018091970280FF0BC080910D0123E030
:102B8000829FC001112484569D4F0E94B315089561
:102B900080910F019091100123E0829FF001112498
:102BA000E456FD4F891748F71182108212828F5F19
:102BB0003396F8CF9091970290FF0EC090910F013D
:102BC0002091100133E0939FF0011124E456FD4F52
:102BD000921718F00E94B71508958183608342838D
:102BE0009F5F3396F5CFA3E0B0E0E9EFF5E10C94F9
:102BF000DA2F9091970290FF0AC09E012F5F3F4FFE
:102C00000E940C154B8169818A810E94DA152396F6
:102C1000E2E00C94F62FCF93DF93EC016C8170E02F
:102C200090E080E00E94432D20E030E04FE753E445
:102C30000E94662C2BED3FE049E450E40E946C2E8C
:102C40000E94D92E0E94E02C2BE43AE34EE25FE38F
:102C50000E94F92B20EF3BEF48ED52E40E946C2ECE
:102C60000E94122D462FE7E9F2E0628181810E94E5
:102C7000F3158C818F5F8C83DF91CF910895CF9373
:102C8000DF93EC01E7E9F2E0438162818C810E94ED
:102C9000F3158C818F5F8C83DF91CF910895A3E032
:102CA000B0E0E5E5F6E10C94D82F8C0180915E024E
:102CB00081110AC09E012F5F3F4F4FEF6FEF0E94BF
:102CC0000C158A8180935E02F8016481613069F09D
:102CD00080915E0240E0662361F040E0623011F4D2
:102CE00040915E0280E060E004C060915E0240E0DE
:102CF00080E00E94DA15F801848190E0019663E09B
:102D000070E00E94562F84832396E4E00C94F42F05
:102D1000A3E0B0E0EEE8F6E10C94D32F082FD62E16
:102D2000E42EC22E9091970290FF29C0E92FE695DC
:102D3000AE2FB0E0A556BE4F8C9180936A029E7F65
:102D4000923009F59E012F5F3F4F802F0E940C1596
:102D50004B8169818A810E94DA1500939802D09292
:102D60009902E0929A02CC2051F060919702709102
:102D700098028091990290919A020E942E152396B2
:102D8000E9E00C94EF2F823019F4E0909A02E5CF3D
:102D9000863019F400919802E0CF8930D9F3893157
:102DA000E1F6E9516E2F6170B62EE695F0E0EF5036
:102DB000FD4F1491F12C60911101F61618F00E944C
:102DC000B715CBCFF19EC001112470E00E94422FB5
:102DD000802FB11014C0860F20910F01622F6F0D4C
:102DE0007727771F9B01220F331F260F371F24568B
:102DF0003D4F4E2D6D2D0E940C15F394DCCF861B9C
:102E0000EBCFE7E9F2E09181282F4381628180E1F5
:102E1000890F0E948816089581E00E940117089585
:102E2000E7E9F2E09181282F4381628180EF890FE9
:102E30000E948816089581E00E9410170895E7E91E
:102E4000F2E0628120E1620F08F46FEF282F4381E6
:102E500081810E948816089581E00E941F170895BD
:102E6000E7E9F2E0628120E1621B08F460E0282FCC
:102E7000438181810E948816089581E00E94301765
:102E80000895E7E9F2E0438120E1420F08F44FEFB3
:102E9000282F628181810E948816089581E00E9416
:102EA00041170895E7E9F2E0438120E1421B08F46D
:102EB00040E0282F628181810E948816089581E078
:102EC0000E945217089520E00E9488160895EF92FC
:102ED000FF921F93CF93DF93EC0110E0EE24EA946E
:102EE000F12C60911101161770F00E94B7159A81AC
:102EF0008C8190FF27C08F5F8C83DF91CF911F91D2
:102F0000FF90EF90089520910F01422F410F552718
:102F1000551FCA019A01220F331F280F391F24564B
:102F20003D4F70E0C7010E94562F962F8C81409133
:102F30009A0260919902199F800D11240E940C152C
:102F40001F5FCFCF8150D8CFB0E0A0E0EAEAF7E131
:102F50000C94D32FFC0182810FEF80FF01E010E081
:102F600080911101181798F00E94B71580916002A6
:102F7000013009F04CC0811102C0809111018150D3
:102F800080936002CDB7DEB7E9E00C94EF2FC091DB
:102F90000F01C12ED12CCC0DDD2DD11DCE01880FFE
:102FA000991FC80FD91FC456DD4F198218821A8283
:102FB00034E0E32EF12CB12C809160028B0D813135
:102FC00004F18F70082E000C990BC816D90691F4E5
:102FD00080919A028E9DA0018F9D500D11245595D0
:102FE0004795559547959E01609199028091980269
:102FF0000E940C15B00EF1E0EF1AF108E9F61F5F20
:10300000AFCF87FFDFCF90911101890FDBCF90E029
:1030100001966091110170E00E94562FB1CF0F937D
:103020001F93CF93DF9380910F019091100123E0C4
:10303000829FF0011124E456FD4F891740F1C0E052
:10304000D3E060911101C61740F10E94B71520919D
:103050000B0180915F02820F80935F0290910C01BF
:10306000920F90930C01191654F4082E000C990B32
:10307000409111014150550B841795071CF0219583
:1030800020930B01DF91CF911F910F910895118231
:10309000108212828F5F3396D0CF0C2F10E070E039
:1030A000C8010E94562F20910F01820F482F50E037
:1030B00020915F02022E000C330B02171307BCF0A5
:1030C00020910C01022E000C330B201731077CF0ED
:1030D0008D9F9001112424563D4F40919A0260919A
:1030E0009902809198020E940C15CF5FAACFFA0135
:1030F000EE0FFF1FE40FF51FE456FD4F1182108203
:103100001282F3CFB0E0A0E0E8E8F8E10C94D02F11
:10311000EC014C81042F10E09801D8010E94A12FEE
:103120009B01AC010E94B72F4B015C01E0E2F0E093
:10313000E01BF10BA5E5B0E0AC019B010E94B72FAD
:103140006B017C019F01DF010E94992F9B01AC0163
:103150000E94C22F9B01AC01280D391D4A1D5B1D29
:10316000C701B6010E946A2FF22E822F90E039E249
:103170003F1520F143E0249F9001112435952795B8
:10318000122F109500E085E5E82EEF1880911101CF
:10319000081718F10E94B7159C8181E0992319F056
:1031A000903219F48FEF80930A0180910A01890F00
:1031B0008C83CDB7DEB7ECE00C94EC2F25E530E046
:1031C000B901681B790B9B01220F331F260F371F94
:1031D00037FFD4CF2F5F3F4FD1CF8E2D01FD8F2DE5
:1031E00020910F01622F600F7727771F9B01220F1D
:1031F000331F260F371F24563D4F412F60919902F0
:103200000E940C150F5FC2CF0F931F93CF93DF93D4
:10321000EC0110E000E0909111019017110609F007
:103220006CF40E94B7158C8190E00196817099270B
:103230008C83DF91CF911F910F91089520910F0101
:10324000A801420F511D9A01220F331F240F351F71
:1032500024563D4F4C816091990280919802969539
:103260009017110651F04CF0442349F040919A0216
:103270000E940C150F5F1F4FCECF4423B9F340E0DF
:10328000F7CFE7E9F2E080818E7F808360817181F2
:10329000828193810E942E1510926B022FEF80E79E
:1032A00092E0215080409040E1F700C000000E9471
:1032B000B7150895E7E9F2E080818E7F8083109250
:1032C0006B022FEF80E792E0215080409040E1F7C1
:1032D00000C000000E94B715089510926B02809103
:1032E000680281110AC081E0809368028091970290
:1032F0008170809367020E945A1908956091970225
:10330000669570E04BE050E082E191E00E94013070
:10331000892B19F481E080936B020E941124909311
:1033200062028093610208959091970290FF2BC0F2
:103330009170811129C0926090939702662351F099
:1033400060919702709198028091990290919A02EF
:103350000E942E1560919702669570E04BE050E058
:1033600082E191E00E940130892BA9F010926B025A
:1033700081E08093640240919A0260919902809169
:1033800098020E9463170895853210F09864D4CF94
:10339000880F982BD1CF0E947E19EACF682F909189
:1033A0009702969581E0890F853208F081E00E94AE
:1033B0009419089581E00E94CE190895682F909184
:1033C000970296958FEF890F09F484E20E94941971
:1033D000089581E00E94DE19089561E00E94941929
:1033E0000895E7E9F2E080818160808386950E94FC
:1033F000ED1908958091970280FF03C00E94411942
:1034000008950E94F119089560E00E9494190895AA
:103410008091690281112EC00E94020D811104C0A9
:103420000E94AF0D0E944C150E94291560939702CF
:10343000709398028093990290939A026E7F61F440
:103440000E944C150E942915609397027093980270
:103450008093990290939A020E941A1510926B021F
:103460008091970280FF03C086950E94041A81E034
:10347000809369020895E7E9F2E0808181608083AA
:1034800086950E94041A089510926802809167023E
:1034900081110E943B1A0E947E1908950F931F9379
:1034A000CF93DF9380916B028823B9F180916A02F8
:1034B000E0919702E695E81BE0936302823091F574
:1034C000F0E0E351FD4FE491CE2FD0E00BE016E1A8
:1034D00080916402882361F0109264020E9411249A
:1034E00090936202809361021092660210926502CC
:1034F0000E941124E0916102F09162028E1B9F0BE9
:103500008F3F9F4750F4EC0FFD1FF0936202E09352
:10351000610281E692E0F8010995DF91CF911F9158
:103520000F910895863049F4F0E0E651FD4FE491A3
:10353000CE2FD0E00FE316E1CBCF893051F4E695E2
:10354000F0E0E951FD4FE491CE2FD0E007E617E11E
:10355000BFCF8F3051F4E695F0E0EC51FD4FE49190
:10356000CE2FD0E004EA17E1B3CF853149F4F0E083
:10357000EF51FD4FE491CE2FD0E00FE018E1A8CF3E
:10358000C8E2D0E002E818E1883109F4A1CF833223
:1035900039F4EFEDF2E0C591D4910FE416E198CF44
:1035A000C4EFD1E004E019E1843209F491CFC0ED19
:1035B000D7E008E015E18CCFFA01811101C0FB01D1
:1035C00009950895CF93DF93C82FD62F0E945C15DD
:1035D0008C1748F00E945C158D1728F40E94DA19A8
:1035E000DF91CF9108958C2F0E94ED19F9CF1F9391
:1035F000CF93DF93EC01FB01128111117EC00E9479
:10360000140C8272CC3CFCE5DF0709F49CC008F086
:1036100041C0C63CECE5DE0709F481C0D8F4C33CE8
:103620009CE5D90709F471C030F4C23CDC4509F4CB
:1036300069C011E062C0C43C9CE5D90709F46AC0C6
:103640004BE157E16CE077E1C53CDC4591F70E9426
:10365000DC1A53C0C93CFCE5DF0709F46AC068F412
:10366000C73CECE5DE0709F45FC04CE257E16DE3CF
:1036700077E1C83CDC4559F3DCCFCA3C9CE5D9076F
:1036800009F45CC040E955E168E775E1CB3CDC45F5
:10369000F1F2CFCFC13DFCE5DF0709F465C098F436
:1036A000CE3C9CE5D90709F457C008F451C0CF3C83
:1036B000FCE5DF0709F455C0C03DDC4509F0B9CF92
:1036C0006EE089E04BC0C43D9CE5D90709F452C0C7
:1036D00058F4C23DFCE5DF0709F449C0C33DDC45B1
:1036E00009F0A7CF88E135C0C53D9CE5D90709F4AD
:1036F00044C0CD35DD4509F09CCF812FDF91CF91BE
:103700001F9108950E94FA19F8CF49EE59E16AED28
:1037100079E19DCF4AED59E169EE79E198CF4CE02E
:1037200057E16BE177E193CF4DE357E16CE277E14D
:103730008ECF4FE557E16EE477E189CF4EE457E154
:103740006FE577E184CF48E755E160E975E17FCF28
:1037500081E00E94ED19D1CF65E082E00E94E21A7B
:10376000CCCF68E086E0FACF64E18FE0F7CF67E185
:1037700085E1F4CF62E289E1F1CF83E2EACF549AA6
:103780004BB14F7E5BB15061EFB7F8949B01220FB4
:10379000331F260F371F280F391F2817390741F409
:1037A000EFBF8FE594E00197F1F700C000000895A6
:1037B000DC016D91CD0178E05BB9000000C067FFCE
:1037C0004BB9660F000000C000C000C04BB900C07C
:1037D0007A9591F7E2CF83E290E00E942430823222
:1037E00089F484E290E00E942430823159F485E229
:1037F00090E00E94243091E0803109F090E0892F20
:103800008170089580E0FCCFCF93C82F6FEF8111B6
:1038100062E283E290E00E9438306FEFC11162E112
:1038200084E290E00E9438306FEFC11160E185E2E0
:1038300090E00E943830CF910895089586E290E09C
:103840000E942430682F70E090E080E00895089591
:10385000CF93C62F0E94271C6C2F86E290E00E9417
:103860003830CF91089580E00E94041C60E070E041
:10387000CB010E94281C0E9497200E94762181E0A3
:103880000E94041C08950E941D1C0E941E1C0E9480
:10389000271C0E94EB1B811102C00E94331C08955B
:1038A000CF93FB01C281CC2309F19C0122513F45FA
:1038B0002031310520F582510E948621C0E08C2FF5
:1038C000CF91089581E00E94460843E062E081E0E4
:1038D0000E94CA03F3CF81E00E94520843E062E0F5
:1038E00081E00E94CA03EBCF82E0F6CF8031FFE592
:1038F0009F0789F381319F45B9F3C1E0E0CF803163
:10390000EFE59E07F9F281319F45C9F682E0DBCFF2
:103910002FEFFC0120830895CF93DF93EC01888182
:103920008138E9F028F4803871F0DF91CF91089563
:103930008238C9F08338C9F70E94AA1589830E948A
:10394000AD158A83F2CF0E94B0152FEF829FC00180
:1039500011246FEF70E00E94422F6983E6CF0E942E
:103960005C158983E2CF0E949415FBCFCF93DF9340
:10397000EC018881813821F128F4803869F0DF91E9
:10398000CF910895823841F18338C9F70E94B0156C
:10399000482F6A81898111C089812FEF829FC001E0
:1039A00011246FEF70E00E94422FD62F0E94AD15B8
:1039B000C82F0E94AA154D2F6C2F0E946317DFCFCE
:1039C00089810E94041A8981811103C00E945A19B9
:1039D000D6CF0E943B1AD3CF89810E94A615CFCFA4
:1039E000EF92FF920F931F93CF93DF93EC01062F7B
:1039F000DC01ED91CD01E150E33108F0ACC0F0E025
:103A0000E658FF4C0C948C2F19828AE08A83602F31
:103A1000CE010E941125CDB7DEB7E6E00C94F22F5F
:103A20008981823069F0833071F08130D9F40E944D
:103A30001D240E94922F6A837B838C839D83E7CF12
:103A40000E941E1CF6CF7E01B2E0EB0EF11C10E0CE
:103A5000812F0E949710F70181937F011F5F18301B
:103A6000B9F7D5CF602FCE010E94881CD0CF8981B5
:103A70008230C1F76A817B818C819D810E94922F67
:103A80000E94281CC4CF4B816A8189810E945920E1
:103A90009827892798279D838C83B9CF2C813D81D6
:103AA0003227232732274B816A8189810E947B201C
:103AB000AECF0E949720ABCF0E94B61CA8CF0E9429
:103AC0008C1CA5CF0E944115A2CF0E94272189837B
:103AD0009ECF0E9429219827892798279A83898336
:103AE00096CF6B8170E089819A81AE014C5F5F4F08
:103AF0009827892798270E942C2189CF6B8170E015
:103B000089819A81AE014C5F5F4F9827892798275A
:103B10000E9451217CCF0E94762179CF0E944720BC
:103B2000D6CF6B8170E089819A81AE014C5F5F4F87
:103B30009827892798270E94D12069CF6B8170E050
:103B400089819A81AE014C5F5F4F9827892798271A
:103B50000E94F5205CCF8FEF888359CFCF93DF93FE
:103B6000EC01FB018281882309F464C1C330FDE5C7
:103B7000DF07E0F5CA3F9CE5D90730F49E012250EB
:103B80003C4524313105D8F50E94180D90938602EA
:103B900080938502C231ECE5DE0709F41FC108F00D
:103BA0006EC0C9308CE5D80709F4F2C008F03FC0F8
:103BB000C530ECE5DE0709F4DBC058F5C3308CE511
:103BC000D80709F4CDC008F0CFC08091850281608C
:103BD000C230DC4509F4AEC0809185029091860226
:103BE0000E94260D0E94C40780E009C0C53AEDE599
:103BF000DE0751F238F4C1369DE5D90729F2DF918D
:103C0000CF9108959E012D5A3D4523303105B8F7D7
:103C1000BBCF809185028062C730FCE5DF0709F4E5
:103C200089C008F4B1C080918502806483C0CD3022
:103C30009CE5D90709F4BAC070F4809185028E7FA3
:103C4000CB30FCE5DF0709F475C008F4A7C080910C
:103C500085028D7F6FC0CF309CE5D90709F4B6C0CF
:103C600008F4A8C0C031FCE5DF0709F4B3C0C131D6
:103C7000DC4509F0B1CF809185028F7B5BC0CF3FDF
:103C80009CE5D90709F4B4C098F5CA3FFCE5DF0705
:103C900009F472C0B8F4C4319CE5D90709F4B6C080
:103CA00008F4A2C0C531DC4509F096CF80918502A9
:103CB00082FB992790F921E0922790FB82F990FBF3
:103CC00083F938C0CC3F8CE5D80709F477C008F4F5
:103CD00057C0CD3FECE5DE0709F474C08091860241
:103CE0008360CE3FDC4509F077CF8093860274CFA6
:103CF000C1368DE5D80709F496C068F4C130EDE50A
:103D0000DE0709F48CC008F477C0C230DD4509F045
:103D100063CF80E085C0CD3A9DE5D907E9F068F42E
:103D200090918502892F8E7F90FF8160C53ADD4595
:103D300009F052CF809385024FCFCE3A8DE5D80758
:103D400089F1CF3ADD4509F047CF90918602892F5E
:103D5000877F93FF8860C9CF809186028860C5CF36
:103D6000809185028260E6CF809185028460E2CFF7
:103D7000809185028860DECF809186028160B5CF18
:103D8000809186028260B1CF809185028061D2CF1E
:103D90000E94C407809185028068CCCF8091850203
:103DA0008C60C8CF80918602877F9FCF80918502EB
:103DB0008B7FC0CF80918502877FBCCF80918602A8
:103DC0008E7F93CF809186028D7F8FCF80918502E9
:103DD0008F7EB0CF809185028F7DACCF0E94C407CB
:103DE000809185028F77A6CF80918502837FA2CFB5
:103DF000809186028C7F79CF80918602982F909552
:103E000091708E7F892B90FB81F96FCF0E94C40740
:103E100090918502892F97FB87F980588BCF81E09D
:103E20000E94B20DD9CE90918502892F8F7E94FF8A
:103E3000806180CF81E0E3CEB0E0A0E0E2E2FFE18C
:103E40000C94D52FE82FF0E0EA50FC4FD490282FA7
:103E500026952695269530E0F901EA56FB4F049108
:103E6000877010E0082E02C0159507950A94E2F7B6
:103E700001701127F901EA57FB4FE490F12C082E4D
:103E800002C0F594E7940A94E2F791E0E922FF2456
:103E9000F901EA58FB4FC491D0E002C0D595C7950F
:103EA0008A95E2F7C170DD270115110519F081EE41
:103EB0000E94D104E114F10419F086EE0E94D104AD
:103EC0008D2D0E946705E114F10419F086EE0E9421
:103ED0001D050115110519F081EE0E941D05CD2B60
:103EE00019F08CE20E946705CDB7DEB7E7E00C94CD
:103EF000F12FEF92FF920F931F93CF93DF93EC017B
:103F0000162F0AE08881882309F454C0813009F013
:103F10004EC08981813099F47E0122E0E20EF11CCD
:103F20008A810E946705E7012196812F815050F315
:103F3000EFE9FFE03197F1F700C00000F7CF8230E2
:103F400041F47E0182E0E80EF11C8A810E94D104D6
:103F5000EACF833041F47E01E2E0EE0EF11C8A816B
:103F60000E941D05E0CF843011F02196DDCF2A811B
:103F7000229690E080E0AE014F5F5F4F2053330BFD
:103F80002A30310548F0019778F2EFE9FFE03197E8
:103F9000F1F700C00000F7CF089FB001099F700D36
:103FA0001124C901860F971F2981EA01E4CF0E94DD
:103FB0001C1FBACFCDB7DEB7E6E00C94F22FEF921C
:103FC000FF920F931F93CF93DF938C01F62E8AE01D
:103FD000E82EF8018491882309F454C0813009F057
:103FE0004DC0E8012196FE018491813091F4219623
:103FF000FE0184910E9467058E010F5F1F4F8F2D78
:10400000815038F3EFE9FFE03197F1F700C000008D
:10401000F7CF823039F4E8012296FE0184910E94A4
:10402000D104EACF833039F4E8012296FE0184916D
:104030000E941D05E1CF8430F9F6E8012296FE01C9
:10404000249190E080E0FE0131962053330B2A301A
:10405000310548F0019780F2EFE9FFE03197F1F781
:1040600000C00000F7CFE89EA001E99E500D11248A
:10407000C901840F951F2491EF01E5CF0E941C1FF9
:10408000E801BACFCDB7DEB7E6E00C94F22F84E0BA
:10409000089550E0440F551F9EE0699F400D511D4B
:1040A000112490E7899F400D511D1124CA01879664
:1040B00008950F931F93CF93DF938430C8F4683033
:1040C000B8F44730A8F40E9449208C010E942430A3
:1040D000C82FD0E0DC2FCC27C80101960E942430E5
:1040E0009E01282BC901DF91CF911F910F91089557
:1040F00090E080E0F8CF0F931F93CF93DF93122FC0
:10410000032F843078F4683068F4473058F40E9404
:104110004920EC01602F0E943830612FCE010196BA
:104120000E943830DF91CF911F910F910895B0E038
:10413000A0E0EDE9F0E20C94D22F8FE1C82E81E0EF
:10414000D82ED0E0C0E0760110E01CC00E945E03D3
:1041500021E030E08C171D0621F01CF0F5012591BF
:104160003491402F612F8C2F0E947B2082E0A80E7B
:10417000B11C0F5F073051F71F5F8EE0E80EF11C96
:10418000183019F0570100E0E1CF219680E7C80E02
:10419000D11CC430D105B9F6CDB7DEB7EAE00C9436
:1041A000EE2FEF92FF920F931F93CF93DF93EC01CB
:1041B0008A017C01E60EF71ECE018796CE15DF053B
:1041C00029F4CDB7DEB7E6E00C94F22FC03C21E035
:1041D000D20740F40E942430F80180830F5F1F4F04
:1041E0002196EACFF8011082F9CFB0E0A0E0EBEF22
:1041F000F0E20C94D42F7C016A018C01060F171F8A
:10420000EC01CE018796C017D10729F4CDB7DEB7F0
:10421000E8E00C94F02FC03C21E0D20740F4FE010E
:10422000EE19FF09EC0DFD1D60810E9438302196CA
:10423000E8CF462F843040F4783030F4673020F4F3
:10424000672F0E945920089590E080E0089580E152
:10425000089589E192E00895EF92FF920F931F93E2
:10426000CF93DF93EC018A017C01E60EF71ECE01AD
:1042700089519E4FCE15DF0529F4CDB7DEB7E6E0B4
:104280000C94F22FC93122E0D20740F40E9424306E
:10429000F80180830F5F1F4F2196E9CFF80110824C
:1042A000F9CFB0E0A0E0E7E5F1E20C94D42F7C0177
:1042B0006A018C01060F171FEC01CE0189519E4F38
:1042C000C017D10729F4CDB7DEB7E8E00C94F02F82
:1042D000C93122E0D20740F4FE01EE19FF09EC0DCE
:1042E000FD1D60810E9438302196E7CFCF93DF9388
:1042F000C7EED1E060E0CE010E9438302196C115B2
:1043000084E0D807B9F7DF91CF910895A4E0B0E039
:10431000ECE8F1E20C94D52FF82E8FE08F1548F1E0
:104320008FEF93E00E942430811123C007EE11E04B
:10433000F11023C019821A821B821C82DD24D394BF
:1043400078018FEFE81AF80AC8010E9424308983A7
:104350001A82882371F09FEF980F9330D8F48A83E4
:10436000D9820E5F1F4FC7010E9424308B838111B9
:1043700012C02496E7E00C94F12F011584E0180791
:10438000C1F3C8010E942430811101C0FA940F5F6B
:104390001F4FCECF870160E0CE0101960E94791FAA
:1043A000CFCFCF93DF93EB0186319C4511F50E946F
:1043B000140C9A81992399F08A7A91E009F490E09B
:1043C00090936C02811109C089E20E94EC0B0E945B
:1043D000550C80E0DF91CF91089585E3F6CF809171
:1043E0006C02811104C089E20E94F40BF0CF85E3D6
:1043F000FBCF81E0EFCF0F931F93CF93DF93C42FB9
:10440000D22FFC0182818823C9F040936F020E9461
:10441000112490936E0280936D0280E28C0F88309D
:1044200040F4C77081E001C0880FCA95EAF70E9486
:104430007005DF91CF911F910F91089510916F0238
:10444000141332C080916D0290916E020E94292453
:10445000883C910548F5C0E2CD0F1D17B9F080E208
:10446000810F883040F4177081E001C0880F1A95E1
:10447000EAF70E947705C83048F481E09D2F9770D5
:1044800001C0880F9A95EAF70E947005802F0E945C
:104490006705C83070F6D77081E001C0880FDA95E3
:1044A000EAF70E947705C5CF80E28C0F883008F6C6
:1044B000C77081E001C0880FCA95EAF7F2CF0F9369
:1044C0009C01CB01233F4CE5340759F1A8F4283D6A
:1044D000FCE53F0701F1293D4CE53407D1F1273DCB
:1044E0003C4591F406E221EE41EE67ED7CE50E9449
:1044F000FB2180E00F910895253FFCE53F07E9F09F
:10450000B0F0263F3C45F9F0FC018281882339F167
:1045100010926F02EFCF07E225EE45EE68ED7CE5E5
:10452000E6CF06E221EE40EE63EF7CE5E0CF07E266
:1045300025EE44EE64EF7CE5DACF06E221EE42EEB2
:1045400065EF7CE5D4CF07E225EE46EE66EF7CE52D
:10455000CECF08E221E045EE69ED7CE5C8CF81E0F1
:10456000C9CF9093D1018093D001089590937502A3
:10457000809374020895E0917402F091750230976F
:1045800029F00190F081E02D0995089580E00895CB
:10459000E0917402F0917502309721F00280F3816E
:1045A000E02D09950895E0917402F091750230971D
:1045B00039F022E0DC012C930480F581E02D09958F
:1045C000089520917202309173022817390771F013
:1045D0009093730280937202E0917402F0917502DD
:1045E000309721F00680F781E02D099508952091FC
:1045F0007002309171022817390771F0909371029F
:1046000080937002E0917402F0917502309721F06E
:104610000084F185E02D099508959C012E5F3F4FA0
:10462000AC01485F5F4F80E02417350709F4089517
:10463000F90191919F019923B9F38F5FF5CF66231B
:1046400049F0FC01329608962191261729F0E817C7
:10465000F907D1F780E0089581E008959C01FC01FD
:1046600032969FEF80E04191461751F09F3F19F439
:10467000411101C0982F8F5F8630A9F79F3F09F441
:104680000895290F311D97FD3A95F9016283089528
:10469000FC01329608962191261303C0DF01119781
:1046A0001C92E817F907B9F708950E942E23089580
:1046B0000E9448230895029626E0FC0111922A9553
:1046C000E9F7089546E050E00E940E3021E0892B82
:1046D00009F420E0822F089508950E946C23089524
:1046E000811106C081E0809376020E946D230895B7
:1046F00082E0F9CF83E0809376020E946D230895D3
:104700000E947023089581E0809376020E946D23B9
:1047100008950E9483230895089508950E948D238B
:104720000895089508950E948C230895CF930E94C0
:1047300091230E9455110E949223C0E08C2F0E9469
:104740009710811105C0CF5FC830C1F7CF91089590
:1047500081E0FCCF85B7806885BF85B7806885BF5D
:1047600008951F921FB61F9211248F939F93AF93AA
:10477000BF9380917702811113C08091CC029091F8
:10478000CD02A091CE02B091CF024196A11DB11DE4
:104790008093CC029093CD02A093CE02B093CF022F
:1047A000BF91AF919F918F911F901FBE1F90189541
:1047B0008091D402843031F10E9453041092770228
:1047C00088E190E020E40FB6F894A895809360000B
:1047D0000FBE2093600083B7817F846083BF83B75F
:1047E000816083BF7894889583B78E7F83BF0FB62F
:1047F000F894A89580916000886180936000109281
:1048000060000FBE08950E94C4070E945A040895D4
:1048100082E084BD93E095BD9AEF97BD80936E00D2
:1048200008952FB7F8948091CC029091CD02A09179
:10483000CE02B091CF022FBF08952FB7F8946091A8
:10484000CC027091CD028091CE029091CF022FBF09
:1048500008959C014FB7F8948091CC029091CD02BD
:10486000A091CE02B091CF024FBF821B930B08954F
:1048700078941F921FB61F9211248F939F93AF932A
:10488000BF938091CC029091CD02A091CE02B091C5
:10489000CF020196A11DB11D8093CC029093CD0251
:1048A000A093CE02B093CF02BF91AF919F918F9111
:1048B0001F901FBE1F90189581E08093E00080E25A
:1048C0008093D8001092C9008FE19EE40197F1F720
:1048D00000C0000087E090EBDC018093DD02909344
:1048E000DE02A093DF02B093E00288E19CE00FB605
:1048F000F894A895809360000FBE90936000FFCF5E
:1049000088E19CE00FB6F894A895809360000FBEF4
:1049100090936000FFCF80918302089508959C01D9
:1049200084E08093E9009FEF8091E800915085FD3D
:1049300006C085ED8A95F1F700009111F5CF8091C1
:10494000E80085FF0CC050E040E066E070E0C9017F
:104950000E9423278091E8008E778093E8000895D5
:10496000CF93DF93EC0181E08093E9008FEF90918A
:10497000E800815095FD06C095ED9A95F1F700008D
:104980008111F5CF8091E80085FF14C050E040E030
:1049900068E070E0CE010E9423278091E8008E77C6
:1049A0008093E80088E0FE01ABE7B2E001900D9251
:1049B0008A95E1F7DF91CF91089580937802709303
:1049C0007A02609379028091D4028430F9F4809362
:1049D000E9008FEF9091E800815095FD06C095EDBC
:1049E0009A95F1F700008111F5CF8091E80085FFDD
:1049F0000DC050E040E063E070E088E792E00E9484
:104A000023278091E8008E778093E8000895BC0109
:104A100084E00E94DD240895BC0183E00E94DD242F
:104A20000895CF93FC01603221F58091D402843047
:104A300001F5C091E900CF702091EC00922F9170A8
:104A400020FD90E8C92B82E08093E9008091E80086
:104A500080FF0CC050E040E060E270E0CF010E94B7
:104A600023278091E8008E778093E800CF70C09371
:104A7000E900CF9108958091D302811109C00E946D
:104A800002290E945F298091E20084608093E20005
:104A900008951092D30208950E948323089560918F
:104AA000D00281E0611101C080E00E947A23089564
:104AB0009091D40281E0943009F080E06091D002BE
:104AC0000E948023089542E061EC81E00E947E28EC
:104AD00042E261EC84E00E947E2842E261EC82E0E6
:104AE0000E947E2842E260EC83E00E947E28909142
:104AF000D40281E0943009F080E06091D0020E94FD
:104B0000702308958091D602833009F463C030F495
:104B10008130E1F1823009F4A0C008958A3009F4AF
:104B20008CC08B3009F471C0893009F052C080917B
:104B3000D502813209F04DC08091D9029091DA02FC
:104B4000009719F0029709F044C08091E800877F30
:104B50008093E8008091E80082FF37C09091F300D5
:104B60008091F200029731F48091F100813011F0D0
:104B7000863021F48091F100809383028091E800D7
:104B80008B778093E8000E94B22823C08091D502E1
:104B9000813AF9F48091E800877F8093E800809162
:104BA000D9029091DA02892B61F468E08BE792E0F8
:104BB00070E00E94C1278091E8008B778093E80025
:104BC000089560E090E080E0F3CF8091D4028111FD
:104BD000C1CF08958091D502813AD9F78091D90249
:104BE0009091DA02892BA9F78091E800877F809362
:104BF000E8008091E80080FFFCCF8091290180933C
:104C0000F1008091E8008E77BCCF8091D50281328F
:104C100001F78091D9029091DA02892BD1F6809127
:104C2000E800877F8093E8000E94B2288091D70235
:104C3000809329010E94C40708958091D502813292
:104C400041F68091E800877F8093E8000E94B228B7
:104C50008091D8028093840208958091D502813A90
:104C600009F0B7CF8091E800877F8093E8008091BA
:104C7000E80080FFFCCF80918402C1CF84B7877F9A
:104C800084BF0FB6F894A8958091600088618093E6
:104C90006000109260000FBE80E890E00FB6F894BC
:104CA00080936100909361000FBE0E948923089554
:104CB0000E9402290E945F29E2EEF0E08081846078
:104CC000808378940E94DE2B08958DE191E00E940C
:104CD000B62208958091D402853031F48091D402B7
:104CE000853019F00E94032408950E94D8238091F2
:104CF000D202882399F30E949623882379F30E9495
:104D00000D270E94C407EACFA0E2B0E0EAE8F6E28D
:104D10000C94DA2F8091D402843009F583E08093DB
:104D2000E9008091E80082FF1AC08091E80090E0DD
:104D300085FF09C050E040E060E270E0CE010196DE
:104D40000E94722791E08091E8008B778093E800C1
:104D5000992329F060E2CE0101960E94F01CA096F2
:104D6000E2E00C94F62F0E94B6260895292F3327EF
:104D70002330310521F168F42130310509F443C0B5
:104D80002230310509F444C090E080E030E020E0BA
:104D900026C02132310551F122323105A9F76330A5
:104DA000710590F7FB01EE0FFF1FED53FE4F2081C1
:104DB000318160547E4FFB01808190E010C09927C3
:104DC0008130910581F0009729F00297E9F6E6EA33
:104DD000F4E002C0E4ECF4E0849190E09F01FA0179
:104DE000318320830895E8EBF4E0F6CF633071055A
:104DF00058F6660F771FFB01E753FE4F2081318184
:104E000089E090E0ECCF82E190E023E235E0E7CF6B
:104E10008BE590E028EC34E0E2CF80E189BD82E1CF
:104E200089BD09B400FEFDCF8091D8008F7D8093AD
:104E3000D8008091E00082608093E0008091E000E3
:104E400081FDFCCF0895AF92BF92CF92DF92FF9287
:104E50000F931F93CF93DF936C01EB018A010E94A4
:104E6000D128F82E811123C00115110539F0F80160
:104E700080819181C81BD90BC80ED91EB12CA12CE1
:104E80002097A9F08091E80085FD22C08091E8007C
:104E90008E778093E80001151105A1F0F80180815B
:104EA0009181A80EB91EB182A08285E0F82E8F2DC7
:104EB000DF91CF911F910F91FF90DF90CF90BF9026
:104EC000AF9008950E94D1288823D1F2F82EEFCF19
:104ED000F60181916F018093F1002197FFEFAF1AE6
:104EE000BF0ACECFAF92BF92CF92DF92FF920F93C5
:104EF0001F93CF93DF936C01EB018A010E94D128AD
:104F0000F82E811123C00115110539F0F8018081B7
:104F10009181C81BD90BC80ED91EB12CA12C20978A
:104F2000A9F08091E80085FD22C08091E8008B7790
:104F30008093E80001151105A1F0F80180819181AD
:104F4000A80EB91EB182A08285E0F82E8F2DDF91C8
:104F5000CF911F910F91FF90DF90CF90BF90AF90B6
:104F600008950E94D1288823D1F2F82EEFCF8091A6
:104F7000F100F60181936F012197FFEFAF1ABF0A8D
:104F8000CECFFC018091DB029091DC02861797075F
:104F9000A0F06115710529F49091E8009E77909337
:104FA000E80090E06115710551F4911108C08091FD
:104FB000E80082FF34C080E00895BC01F2CF809108
:104FC000D4028823C1F18530C1F18091E80083FDCE
:104FD00030C08091E80082FDEACF8091E80080FF38
:104FE000E1CF8091F3002091F200382F6115710517
:104FF00019F02830310558F091E02830310509F0DA
:1050000090E02091E8002E772093E800CBCF8191AB
:105010008093F100615071092F5F3F4FE7CF80917E
:10502000D402882341F0853041F08091E80083FF6D
:10503000BECF81E0089582E0089583E00895FC01E9
:105040008091DB029091DC0286179707A0F0611532
:10505000710529F48091E8008E778093E80090E054
:105060006115710551F4911108C08091E80082FF2B
:1050700035C080E00895BC01F2CF8091D40288232E
:10508000C9F18530C9F18091E80083FD31C080917C
:10509000E80082FDEACF8091E80080FFE1CF8091B7
:1050A000F3002091F200382F6115710519F02830B6
:1050B000310558F091E02830310509F090E08091F9
:1050C000E8008E778093E800CBCF84918093F10045
:1050D0003196615071092F5F3F4FE6CF8091D40226
:1050E000882341F0853041F08091E80083FFBDCFF7
:1050F00081E0089582E0089583E00895982F973025
:1051000028F08F708093E90081E008959093E90082
:10511000242F762F50E0981731F07091EC002091F9
:10512000ED005091F00021FD02C09F5FE8CF30916B
:10513000EB003E7F3093EB003091ED003D7F3093EC
:10514000ED003091EB0031603093EB007093EC0098
:105150002093ED005093F0002091EE0027FDE5CF65
:1051600080E008958091D50287FF13C08091E80008
:1051700082FF06C08091E8008B778093E80004C02E
:105180008091D4028111F2CF08958091D4028823B6
:10519000D9F38091E80080FFF8CF8091E8008E7706
:1051A000ECCF2091E4003091E50095E6A901209133
:1051B000EC00822F817020FF06C08091E80080FF04
:1051C00006C080E008952091E80022FD1AC0809179
:1051D000D402882389F0853089F08091EB0085FD29
:1051E0000FC02091E4003091E50042175307F9F217
:1051F0009150E1F684E0089582E0089583E00895F7
:1052000081E008950E9471290E947929E0EEF0E082
:10521000808181608083E8EDF0E080818F778083FA
:1052200019BCA7EDB0E08C918E7F8C9380818F7E2E
:1052300080831092D30208950F931F93CF93DF932F
:105240000E9471290E947929C8EDD0E088818F776A
:10525000888388818068888388818F7D888319BC52
:105260001092D4021092D0021092D2021092D10267
:1052700000EE10E0F80180818B7F8083888181605F
:10528000888342E060E080E00E947E28E1EEF0E06A
:1052900080818E7F8083E2EEF0E080818160808378
:1052A000808188608083F80180818E7F80838881FF
:1052B00080618883DF91CF911F910F910895E8ED70
:1052C000F0E080818F7E8083E7EDF0E08081816077
:1052D000808384E082BF81E08093D3020E941C29F6
:1052E0000895E8EDF0E080818E7F80831092E200E7
:1052F00008951092DA001092E10008951F920F9223
:105300000FB60F9211242F933F934F935F936F9398
:105310007F938F939F93AF93BF93EF93FF9380916E
:10532000E10082FF0BC08091E20082FF07C0809104
:10533000E1008B7F8093E1000E94DD2B8091DA00F9
:1053400080FF19C08091D80080FF15C08091DA00DD
:105350008E7F8093DA008091D90080FF96C080E133
:1053600089BD82E189BD09B400FEFDCF81E0809353
:10537000D4020E943B258091E10080FF19C08091FA
:10538000E20080FF15C08091E2008E7F8093E200F2
:105390008091E20080618093E2008091D800806279
:1053A0008093D80019BC85E08093D4020E944F25D9
:1053B0008091E10084FF2BC08091E20084FF27C030
:1053C00080E189BD82E189BD89B5982F917080FF08
:1053D000FBCF8091D8008F7D8093D8008091E10031
:1053E0008F7E8093E1008091E2008F7E8093E200C7
:1053F0008091E20081608093E2008091D002882356
:1054000009F449C084E08093D4020E945825809119
:10541000E10083FF29C08091E20083FF25C08091D5
:10542000E100877F8093E10082E08093D4021092B4
:10543000D0028091E1008E7F8093E1008091E200B4
:105440008E7F8093E2008091E20080618093E20091
:1054500042E060E080E00E947E288091F000886059
:105460008093F0000E944C25FF91EF91BF91AF9186
:105470009F918F917F916F915F914F913F912F916C
:105480000F900FBE0F901F90189519BC1092D40268
:105490000E94492570CF8091E30087FD93E09093AF
:1054A000D402B3CF1F920F920FB60F9211242F93F5
:1054B0003F934F935F936F937F938F939F93AF939C
:1054C000BF93CF93DF93EF93FF93D091E900DF7009
:1054D0008091EC00C82FC17080FDC0E81092E900F7
:1054E0008091F000877F8093F00078940E94962A44
:1054F0001092E9008091F00088608093F000CD2B3D
:10550000CF70C093E900FF91EF91DF91CF91BF91F0
:10551000AF919F918F917F916F915F914F913F914B
:105520002F910F900FBE0F901F901895AAE2B0E038
:10553000ECE9FAE20C94D92F85ED92E02091F1008C
:10554000FC012193CF01F2E08D3D9F07B9F70E9446
:1055500082258091E80083FF1EC18091D502909141
:10556000D6029A3008F017C1E92FF0E0E357FF4C5C
:105570000C948C2F803899F0823809F00CC18091FE
:10558000D9028F70873008F006C18093E9008091BE
:10559000EB0085FB882780F91092E90006C0809116
:1055A000D1029091D202911182609091E800977F90
:1055B0009093E8008093F1001092F1008091E80050
:1055C0008E77E5C0882309F4D3C0823009F0E3C0A8
:1055D0008091D7028111D6C08091D9028F702FEFB0
:1055E000280F263008F0D7C08093E9002091EB0007
:1055F00020FFC8C0933031F48091EB00806280932B
:10560000EB00C0C09091EB0090619093EB0021E023
:1056100030E001C0220F8A95EAF72093EA00109249
:10562000EA008091EB008860EACF8111B4C010914C
:10563000D7021F778091E3008078812B8093E3006D
:105640008091E800877F8093E8000E94B2288091D3
:10565000E80080FFFCCF8091E30080688093E30046
:1056600082E0111183E08093D40295C0805882308B
:1056700008F091C08091D7029091D8028C3D23E030
:105680009207A1F583E08A838AE289834FB7F89471
:10569000DE01139620E03EE051E2E32FF0E050936C
:1056A0005700E49120FF03C0E295EF703F5FEF7079
:1056B0008E2F90E0EA30C0F0C7968D939D932F5FB8
:1056C000243159F74FBF8091E800877F8093E8002D
:1056D0006AE270E0CE0101960E94C1278091E80045
:1056E0008B778093E80057C0C096E7CF6091D902CE
:1056F0007091DA02AE014F5F5F4F0E94B326BC018A
:10570000892B09F448C09091E800977F9093E800B6
:1057100089819A810E941F28E1CF8038E1F580912C
:10572000E800877F8093E8008091D0028093F100A9
:1057300045CF811130C09091D702923060F58091B1
:10574000E800877F8093E8009093D0020E94B228FF
:105750008091D002882311F084E005C08091E3009D
:1057600087FDFACF81E08093D4020E94632513C0A5
:105770008091D702813079F481E0933009F080E0A4
:105780008093D2021092E9008091E800877F809395
:10579000E8000E94B2288091E80083FF0AC080914F
:1057A000E800877F8093E8008091EB00806280931F
:1057B000EB00AA96E3E00C94F52F0895CF93809127
:1057C000D4028823A1F0C091E900CF709091EC0041
:1057D000892F817090FD80E8C82B1092E90080919C
:1057E000E80083FD0E94962ACF70C093E900CF9114
:1057F00008955058BB27AA270E94112C0C94BC2D49
:105800000E94AE2D38F00E94B52D20F039F49F3F54
:1058100019F426F40C94842D0EF4E095E7FB0C9417
:105820007E2DE92F0E94CD2D58F3BA17620773071A
:105830008407950720F079F4A6F50C94EF2D0EF46B
:10584000E0950B2EBA2FA02D0B01B90190010C0190
:10585000CA01A0011124FF27591B99F0593F50F4A8
:10586000503E68F11A16F040A22F232F342F442700
:10587000585FF3CF469537952795A795F0405395F8
:10588000C9F77EF41F16BA0B620B730B840BBAF0C8
:105890009150A1F0FF0FBB1F661F771F881FC2F733
:1058A0000EC0BA0F621F731F841F48F48795779547
:1058B0006795B795F7959E3F08F0B0CF9395880F01
:1058C00008F09927EE0F9795879508950E947A2CF6
:1058D0000C94BC2D0E94B52D58F00E94AE2D40F0C6
:1058E00029F45F3F29F00C947E2D51110C94F02D7A
:1058F0000C94842D0E94CD2D68F39923B1F3552388
:1059000091F3951B550BBB27AA27621773078407D2
:1059100038F09F5F5F4F220F331F441FAA1FA9F368
:1059200035D00E2E3AF0E0E832D091505040E69556
:10593000001CCAF72BD0FE2F29D0660F771F881FB7
:10594000BB1F261737074807AB07B0E809F0BB0BAA
:10595000802DBF01FF2793585F4F3AF09E3F5105BE
:1059600078F00C947E2D0C94F02D5F3FE4F3983E7C
:10597000D4F3869577956795B795F7959F5FC9F7A7
:10598000880F911D9695879597F90895E1E0660F28
:10599000771F881FBB1F621773078407BA0720F0A1
:1059A000621B730B840BBA0BEE1F88F7E09508950A
:1059B00029F416F00C947E2D0C94EF2D0C94842D6C
:1059C0000E94D52DA8F39638A0F707F80F92E89417
:1059D0002BE33AEA48EB5FE70E94822E0F920F9288
:1059E0000F924DB75EB70F920E94382EECEAF0E0AE
:1059F0000E94872D4F915F91EF91FF91E595EE1FEA
:105A0000FF1F49F0FE57E0684427EE0F441FFA9548
:105A1000E1F74195550B0E94022E0F9007FE0C9462
:105A2000F62D08950E94D52D88F09F5798F0B92F34
:105A30009927B751B0F0E1F0660F771F881F991FC3
:105A40001AF0BA95C9F714C0B13091F00E94EF2D49
:105A5000B1E008950C94EF2D672F782F8827B85F59
:105A600039F0B93FCCF3869577956795B395D9F71B
:105A70003EF490958095709561957F4F8F4F9F4F25
:105A80000895E89409C097FB3EF490958095709531
:105A900061957F4F8F4F9F4F9923A9F0F92F96E97A
:105AA000BB279395F695879577956795B795F111EF
:105AB000F8CFFAF4BB0F11F460FF1BC06F5F7F4F8C
:105AC0008F4F9F4F16C0882311F096E911C077239E
:105AD00021F09EE8872F762F05C0662371F096E8A7
